:020000040800F2
:10000000101C0020D93A0008293A00082B3A0008B1
:100010002D3A00082F3A0008313A0008000000008D
:10002000000000000000000000000000F7120008BF
:10003000333A000800000000B1120008DD0B000890
:10004000FD3A0008013B0008053B0008093B000899
:100050000D3B0008113B00088B290008B32900085C
:10006000153B0008193B00081D3B0008353A000805
:10007000213B0008253B0008293B00082D3B0008D8
:10008000313B0008353B0008393B00083D3B000888
:10009000413B0008453B0008493B0008D7290008C0
:1000A0004D3B00083B3A0008513B0008553B000817
:1000B000593B00085D3B0008613B0008653B0008B8
:1000C000693B00086D3B0008713B0008753B000868
:1000D000793B00087D3B0008813B0008853B000818
:1000E000893B00088D3B0008913B0008F0B585B0C6
:1000F00050260B9D25B986F3118800F031FAFEE7F2
:100100000C9C24B986F3118800F02AFAFEE75C27DC
:100110000097009F5C2F04D086F3118800F020FA2E
:10012000FEE70A9E25630027022584F859500397AD
:10013000029404AD0195009600F034F8204600F0DA
:1001400077F8049805B0F0BD2DE9F8430646174648
:1001500084B088469946B80000F074FB05001CD0B6
:100160005C2000F06FFB040014D00D990C982563FF
:10017000002284F8592003920191009002944B468A
:100180003A464146304600F00DF8204600F050F85F
:10019000012004E0284600F0DEFB4FF0FF3005B000
:1001A000BDE8F0832DE9F0470A9D81460C461746CD
:1001B000286B9846A522B90000F01EFC296B01EBC4
:1001C0008702171FFF08FF000021625C6B1883F88D
:1001D0003420605C10B1491C1029F6D3089E002021
:1001E00085F84300372E099C88BF372605F14C0A55
:1001F000EE62CAF80400CAF80060281D00F026FC70
:1002000005F1180000F022FC2D61C6F13806AE6140
:100210006D620020CAF808008AF80C004246494680
:10022000384600F04FFC286004B12560BDE8F08737
:100230002DE9F04100F06BF8DFF80855DFF808858C
:10024000E86C401CE8641426A86A28BBAC62E86C21
:10025000012829D1002706FB07F0404400F0E9FB04
:100260007F1C382FF7D305F1740000F0E2FB05F195
:100270008807384600F0DDFB284600F0DAFB05F180
:10028000140000F0D6FB05F1380000F0D2FB05F1B8
:100290007400E8622F6307E0A86D28B9E06AA96AD4
:1002A000CA6A904228BFAC62A86E401CA86660640F
:1002B000E06A696D814238BF68654643211D08EBDD
:1002C000060000F0C6FB00F078FCA86D30B100F02D
:1002D000A4F903D200F07AFA00F042F9BDE8F08107
:1002E00080B588B1DFF85C24116F21B100F0AAF865
:1002F00000F036F9FEE7116F491C1167002100F08C
:100300006FFA00F047F808B900F025F901BD04467E
:1003100000F03ABC80B586B000210591049103AA93
:1003200004A905A800F0B1FD0598049902900022E7
:10033000009201910023039A11A10FF26930FFF797
:10034000D5FE98B100F0B8FD5021012810D181F3FD
:10035000118800F005F9DFF8EC034FF0FF31C166BA
:10036000012282650021016500F0CAFB07B000BDD3
:1003700010F1010FFAD181F3118800F0F1F8FEE7D6
:1003800049444C4500000000DFF8A404016F491CFB
:100390000167704770B5DFF8AC63306F002400254B
:1003A00020B900F043F800F0DBF8FEE700F0ECFBCA
:1003B000306F401E3067306F002835D1F06CD0B9F7
:1003C00032E0F068C46800F035F800F0BFF9E06A88
:1003D000716DDFF86024814238BF70651423584383
:1003E000211D104400F035FBE06AB16ACA6A9042F0
:1003F00024BF0121316630680028E2D10CB100F041
:1004000088F9F46D3CB100F021F808B101203066A4
:10041000641EF8D1F565306E30B1DFF81C144FF072
:100420008050012500F09BF800F0C9B9502181F3FC
:100430001188704704F1180000F031BBDFF8F003B9
:10044000006D7047502080F3118870472DE9F84304
:10045000DFF8F072386F002600284DD13C6D641C27
:100460003C6510D1F86A006820B1FFF7DFFF00F0AB
:1004700077F8FEE7F86A396BF9623863786E401CEA
:10048000786600F046F9F86EDFF8A89384424FF0E2
:10049000140824D319E0281D00F001FBA86A18B144
:1004A00005F1180000F0FBFAE86A796D814238BF67
:1004B000786508FB00F0291D484400F0CAFAE86A94
:1004C000B96ACA6A904228BF0126F86A006880B1FA
:1004D000F86AC168CD6868688442DCD2F866B86A98
:1004E000C06A08FB00F059F80010022907D3012662
:1004F00005E04FF0FF30F1E7F86D401CF865386E0D
:1005000000B101265FE110B5DFF83822106F10B19D
:100510000121116610BD1066516DDFF8183300E03F
:10052000491E14244C43185930B90029F8D1FFF75B
:1005300089FF00F015F8FEE7181900F10804436878
:100540005B684360A34204BF5B6843604068C36864
:100550009362516510BDDFF8E0124FF080500860E3
:10056000BFF34F8FBFF36F8F704710B50C4620B9A4
:10057000FFF768FFFFF7F4FFFEE700F01DF800F05B
:1005800075FA2046BDE81040FFE7012128E138B5A3
:100590000D46144620B9FFF755FFFFF7E1FFFEE7D0
:1005A00000F00AF800F055FA0CB14FF0FF35214683
:1005B0002846BDE8344013E1DFF87422936A03F162
:1005C0001801704738B5C068C46824B9FFF73AFF0E
:1005D000FFF7C6FFFEE7FFF72DFFDFF85452286F45
:1005E00040B900F0B3F800F012F838BF6A6500F0C7
:1005F000F2F802E004F11801284600F02AFA00F0AF
:100600000CF802D20120286632BD002032BDE26A19
:10061000686DDFF8203290427047A86AC16AE06ACC
:1006200081427047DFF808124A6E0260096D41602E
:100630007047F8B504460D46502024B980F3118860
:10064000FFF78EFFFEE725B980F31188FFF788FFDB
:10065000FEE700F099FADFF8D801016D62682E68B4
:100660008B1A16F1010F0ED0476ED4F800C0674503
:1006700001D091420BD2B34207D2F31A2B60416EE4
:100680002160006D6060002402E0002028600124E9
:1006900000F093FA2046F2BDDFF8941101200866BD
:1006A0007047000070B5284CDFF8845111E000F06D
:1006B0006BFA286AC668301D00F0F1F9E86C401E3C
:1006C000E864686B401E686300F077FA304600F01B
:1006D00009F8686B0028EAD121680229F9D3FFF7ED
:1006E0003AFFF6E710B5044694F8590040B9206B7C
:1006F00000F031F92046BDE8104000F02CB910BDE3
:100700000128F7D00228FAD0FFF79CFEFFF728FF58
:10071000FEE70C49C86A006810B94FF0FF3203E0E9
:10072000C86AC268D0684268CA667047DFF80011BC
:10073000886D08B901207047086F08B9022070471A
:100740000020704778150020340C0020201D00F098
:10075000A6B938B5044600214CB3DFF8D450A86AD6
:100760005022844204D082F31188FFF7F9FEFEE79D
:10077000206D20B982F31188FFF7F2FEFEE7E26AEE
:10078000E36C401E9A42206511D080B9FFF7DEFF6E
:10079000E06CDFF8A030E062C0F13800A061E26AEE
:1007A000686D904238BF6A6500F003F80121084681
:1007B00032BD14204243211D981800F04AB900F0C0
:1007C000FCF9284670BD3046BDE8F2831A4A4FF066
:1007D00080511160704714204243211D98187047C2
:1007E000F8B5134D2F6D0C46A96A0646081D00F09A
:1007F00056F916F1010F05D124B1A86A011D05F1C2
:1008000038001BE0A86AF6194660BE42A86A05D205
:10081000011D286BBDE8F44000F028B9011DE86A0D
:1008200000F024F9E86E864238BFEE66F1BD0000A4
:1008300078150020340C002004ED00E0BDE8F44001
:1008400000F007B92DE9F8430446FFF79DFD694F15
:10085000B8684FF00009002508BB07F1180307F13D
:10086000180113F0070F4FF440600A4605D0CA1D67
:10087000D208D200C2F54060081880180838C008B5
:10088000C0003A607D60B86045600560831A5360BF
:10089000106050683861F8604FF0004078614FF0A8
:1008A00050087869044233D194B3083414F0070F28
:1008B0001FBF04F1080004F00704041B14F0070F25
:1008C00002D000F041F8FEE714B3F868A0421FD34D
:1008D0003E6839467068A04223D2306800281CBFA9
:1008E00031460646F6D11CE0301D025174600846C0
:1008F00000F05BF87168F8683A69401AF860904255
:1009000038BF3861786901437160356009F00705C7
:10091000FFF740FD15B100F017F8FEE74846BDE8C7
:10092000F283B8688642F3D00A683068086002F142
:1009300008097268121B112ADCD3311911F0070063
:10094000D2D000F001F8FEE788F31188BFF34F8F93
:10095000BFF36F8F7047002800D1704738B5A0F102
:100960000804244D61686A695023114202D100F0E5
:1009700015F8FEE7206810B100F010F8FEE791438B
:100980006160FFF701FDE96860684118E960204691
:1009900000F00BF8BDE83140FFF7FCBC83F3118891
:1009A000BFF34F8FBFF36F8F704730B511490A46C1
:1009B00000E01A4613688342FBD35368D41884427C
:1009C00003D14068C3185360104643681468C518C3
:1009D000A54208D189688C4204D06168CB18436075
:1009E000246800E00C460460824218BF106030BDED
:1009F000000000001C00002062F30F2262F31F427F
:100A000000B500BF130096469446103928BFA0E8F1
:100A10000C50FAD85FEA417C28BF0CC048BF40F8B0
:100A2000042BC90728BF20F8022B48BF00F8012B70
:100A300000BD4FF0FF3200F1080182604160C160EB
:100A400000F108020261002101607047002101618C
:100A5000704710B542684A6093688B609468616023
:100A6000916008610168491C016010BD30B50A68D9
:100A700012F1010F08BF036907D000F1080300E07D
:100A800023465C682568AA42FAD25A684A60916097
:100A90008B60596008610168491C016030BD436882
:100AA000016982689A60836842685A604A68824233
:100AB00004BF83684B60002202610868401E086022
:100AC00008687047490810B54900A0F10C034FF0C1
:100AD000807459609C600FF20D01196040F8202D60
:100AE000203810BD53494A68502012F1010F80F39D
:100AF0001188BFF34F8FBFF36F8F00D0FEE7FEE783
:100B00001CB54D490A780192FF230B7007220C781F
:100B10008DF800409DF80000464C00F05000207019
:100B2000A26006E0401EA0609DF8000040008DF825
:100B30000000A0689DF800201306F3D4C0F107025E
:100B4000042A02D000F018F8FEE7000200F4E0608A
:100B5000A060019808703948016841F47001016093
:100B6000026842F07042026000F070F8002060609D
:100B700000F0D1FB002016BD502080F31188BFF398
:100B80004F8FBFF36F8F7047502080F31188BFF3F2
:100B90004F8FBFF36F8F27494A68521C012A4A6062
:100BA0000AD127490A68130606D080F31188BFF3DB
:100BB0004F8FBFF36F8FFEE770471E49486838B903
:100BC000502080F31188BFF34F8FBFF36F8FFEE784
:100BD000401E486008BF80F31188704780B5FFF75A
:100BE000CBFFFFF733FC18B115494FF08050086078
:100BF000002282F3118801BD10B5EFF3058050216A
:100C000010280C4A09D30F4B185C1478A04204D268
:100C100081F31188FFF7B3FFFEE790680A4A136873
:100C200003F4E063984204D281F31188FFF7A7FF31
:100C3000FEE710BD0000002000E400E020ED00E031
:100C400004ED00E0F0E300E00CED00E00748084BA5
:100C50000021016081604FF47A721968B1FBF2F2F1
:100C6000521E426007210160704700BF10E000E0A3
:100C700018000020EFF30580002804BFEFF3108078
:100C8000002807D1DFF8F4110868022803D1EFF338
:100C9000118000B182E0086810B901220A60704733
:100CA0004FF0FF307047000080B500F0EAF804BF55
:100CB000EFF31080002807D1DFF8C0110868022880
:100CC00003D1EFF3118000B109E00868012805D1D4
:100CD00002220A60FFF71EFB002002BD02E06FF057
:100CE000050002BD4FF0FF3002BDF0B585B0002316
:100CF0000493EFF30583002B04BFEFF31083002B65
:100D000049D1DFF878311C68022C03D1EFF311834D
:100D1000002B40D103003ED00023402518268DF83B
:100D20000C3003AC5AB3136803B11C4693691BB172
:100D30001E0004D0392E02D21379DF0701D500201E
:100D40002AE0536903B19D08D2F80CC0976887B1B7
:100D5000BCF15C0F1FD31269002A18BF002B1AD0F8
:100D600001920B46029700962A462146FFF7BEF9EC
:100D700010E0BCF1000F04BF1269002A0BD104ABD4
:100D8000019300960B46AAB22146FFF7DDF9012830
:100D900001D000200490049805B0F0BD6FF005006C
:100DA0007047DFF8D80001680229704710B500F0DD
:100DB0005DF804BFEFF31081002905D100F05AF867
:100DC00005D1EFF3118111B16FF0050403E00024A8
:100DD00008B1FFF785FA204610BD80B500F04FFA44
:100DE000010004D048680968BDE80440084701BD17
:100DF0002DE9FC4107460E4690461C46002500F0B2
:100E000040F804BFEFF31080002824D1FFF7C9FF9A
:100E100002D1EFF31180F0B938001CD00820FFF7A1
:100E200011FD030017D032001F6018BF0122C3F864
:100E300004800020DFF8746094B1216801B1084695
:100E4000E168A46854B1302905D3019400960121CA
:100E500000F072F805462846BDE8F6810029FAD16F
:100E60000096012100F04EF8F4E70025EFF305812C
:100E70000029704701490A68022A70470C180020AF
:100E80000446EFF3058000287047094B036003F127
:100E90005C000860402111607047064B036003F15D
:100EA0005C0008608021116070470000DB0D0008C5
:100EB000F01200209410002010B586B000F0B8F9B0
:100EC000DFF8D443A068D0B100210591049103AAB2
:100ED00004A905A8FFF7E1FF0598049902900222F2
:100EE000009201910023039A0FF2B4310FF2111016
:100EF000FFF7FCF8E06010B1012006B010BD00F073
:100F00008EF9FEE72DE9FC4105460E461746984648
:100F10003020FFF797FC04000BD008980090019454
:100F200043463A463146284600F026F8002084F829
:100F30002C002046BDE8F6813EB5302400945025B3
:100F4000009C302C02D000F010F8FEE7079C14B98A
:100F500000F00BF8FEE7069D0194009500F00CF8F8
:100F6000012584F82C5020463EBD85F31188BFF33F
:100F70004F8FBFF36F8F70472DE9F8430D00064682
:100F80009146984602D100F04AF9FEE7099C74B1F7
:100F9000089F00F04DF92660A561C4F81C90C4F8C4
:100FA00020806762201DBDE8F243FFF74FBDBDE81A
:100FB000F183F8B5044684B01E46002014B900F051
:100FC0002EF9FEE7DFF8D072BD68BDB106290091A9
:100FD000019202940CDAFFF7A9FB0228B86807BF58
:100FE0000A9A002300230022694600F026FA05E051
:100FF000002332466946284600F0B7FA05B0F0BD36
:1010000080B5A5490A68106800281DBF0021D06876
:101010000068012100F003F800F0A2F8F1E7FEB546
:1010200006460C46FFF7B0F901A800F042F8054665
:10103000019800283AD1984F24BBB54227D3FFF737
:10104000A9F93868C168CC68201DFFF728FDE06960
:10105000012813D1A16933462A468919204600F098
:1010600064F858B100200090002332460021204649
:10107000FFF79FFF10B900F0D2F8FEE7616A204643
:101080008847F7BD786801684C1EA441E40FB86832
:101090002246711B00F0F0FBFFF77CF940B97F4955
:1010A0004FF080500860FFF762FFF7BDFFF772F95D
:1010B000F7BD2DE9FC410446FFF7C0F9764E054621
:1010C000306985420BD30021216035612846BDE897
:1010D000F68178603F61391D3068FFF7C7FC3168E1
:1010E0000868E8B1C868D0F80080C768381DFFF705
:1010F000D6FC796A38468847F8690128EFD1B86983
:1011000040448045E5D30020009000234246002162
:101110003846FFF74EFF0028E1D100F080F8FEE7E7
:101120007068716030600121CEE738B500248A42D2
:1011300041600061584D06D38169D21A8A4206D2B5
:10114000011D686807E09A4203D2994201D3012445
:1011500003E0011D2868FFF789FC204632BD00002E
:1011600038B586B04C4C05E00B460A464118284677
:10117000FFF7DBFFA068002202A900F045FA002873
:101180004BD00298002803D505990498039A9047FC
:1011900002980028EED4049D686910B1281DFFF75D
:1011A0007EFC01A8FFF785FF014602980928E1D8D7
:1011B000DFE800F006060605242B06060524D9E71D
:1011C0000A460398A969034609182846FFF7ADFFA8
:1011D0000028CFD0696A28468847E8690128C9D124
:1011E00000210091039AA869821800232846FFF77E
:1011F000E0FE0028BED100F012F8FEE70398A861D7
:101200000028B1D100F00BF8FEE795F82C0000287B
:10121000B0D12846FFF79FFBACE707B030BD5020A8
:1012200080F31188BFF34F8FBFF36F8F70470000BB
:101230001CB5FFF7A9FC184CA068E0B904F1140034
:10124000FFF7F7FB04F12800FFF7F3FB04F11400AC
:1012500004F12801002220606160009204F13C0347
:1012600004F18C0210210A2000F0A2F8A06010B155
:101270000DA100F0ECFABDE81340FFF79EBC10B5DD
:10128000040002D1FFF7CBFFFEE7FFF77DFC246AE5
:10129000FFF793FC204610BD4C14002004ED00E045
:1012A000546D722053766300546D7251000000003B
:1012B000EFF30980BFF36F8F1D4B1A6820E9F00F21
:1012C000106008B54FF0500080F31188BFF34F8FC6
:1012D000BFF36F8FFFF717F94FF0000080F311880D
:1012E000BDE8084019680868B0E8F00F80F3098885
:1012F000BFF36F8F70470E4B19680868B0E8F00FA6
:1013000080F30988BFF36F8F4FF0000080F31188DE
:101310004EF00D0E704707480068006880F308889B
:1013200062B661B6BFF34F8FBFF36F8F00DF00006F
:10133000A015002008ED00E038B504000D4602D1EC
:1013400000F073F8FEE7FFF71FFCE26B206C2168EA
:101350004243881860600021A1632068E26BA060AE
:10136000521E206C216842438818E0604FF0FF3124
:1013700004F144000170417075B92069A0B104F115
:101380001000FFF71FF978B1DFF8E4144FF0805038
:10139000086000F0D2F907E004F11000FFF749FB04
:1013A00004F12400FFF745FBFFF707FC012032BDE5
:1013B0007CB51C46502320B983F3118800F0BDF999
:1013C000FEE724B983F3118800F0B7F9FEE72AB1EC
:1013D00029B983F3118800F0B0F9FEE761B90093F1
:1013E000009E502E0DD1069B012584F84650009496
:1013F00000F00CF8204676BD83F3118800F09DF9CB
:10140000FEE783F3118800F098F9FEE738B5049DF4
:101410001C4601B92A462A60E8632964284601214E
:10142000FFF78AFF85F84C4031BD502080F31188CA
:10143000BFF34F8FBFF36F8F70472DE9F64782B030
:1014400004461E46502714B900F075F9FEE75FEA1E
:10145000010A01D1206C70B9022E02D1E06B012883
:101460000CD1FFF763F900285ED1039800285BD008
:1014700000F061F9FEE700F05EF9FEE700F05BF9CD
:10148000FEE7039907F11000FFF76FF8384600F008
:10149000A1F9FEF77FFF18B9C8F8009000F04DF9E8
:1014A000FFF772FBB86BF96B884242D3022E40D033
:1014B0000398002835D014B900F029F90124FFF76A
:1014C0007CFBFEF761FFFFF75FFB07F1440000F0D4
:1014D00021F904BF0022027000F021F904BF0022AC
:1014E0004270FFF76AFB00F03CF888BBFFF74CFB4B
:1014F000B86BF96B884214BF00250125FFF75DFB2F
:10150000002DBED1384600F065F9FEF743FFC7E76E
:1015100018B1C8F8009000F010F9FFF74EFB012059
:101520001CE0FFF74AFB18E02746002400F0EAF829
:10153000B6E732465146384600F004F9796A002988
:10154000E6D007F12400FFF73DF80028E1D1E4E7F9
:10155000384600F03FF9FEF71DFF002004B0BDE85B
:10156000F08703A96846FFF764B82DE9F8430446FD
:10157000884615461E46502714B900F0DCF8FEE7F1
:10158000B8F1000F01D1206C20BB022E02D1E06B1C
:10159000012822D1FFF730FBEFF3118900F02AF880
:1015A00001D3022E21D194F945703246414620469E
:1015B00000F0C8F817F1010F12D1606A98B104F178
:1015C0002400FEF7FFFF002818BF002D0BD00120DC
:1015D000286008E000F0AFF8FEE700F0ACF8FEE7A6
:1015E0007F1C84F84570012000E0002089F31188F9
:1015F000BDE8F28387F31188BFF34F8FBFF36F8F7E
:10160000A06BE16B884270472DE9F74306460F4611
:101610000024502526B985F3118800F08EF8FEE7E6
:101620000FB9306C48B9FFF781F878B9029868B102
:1016300085F3118800F081F8FEE785F3118800F04A
:101640007CF8FEE700F075F8FEF7A4FEFFF79CFAC1
:10165000B56B00F057F825B90298B8B9FFF7ADFAA5
:101660004DE03946304600F0A1F86D1EB563306993
:1016700040B106F11000FEF7A5FF18B1C8F80090C0
:1016800000F05BF8FFF799FA012039E014B900F097
:101690003EF80124FFF791FAFEF776FEFFF774FAA1
:1016A00006F14400415711F1010F04BF00220270FE
:1016B00000F035F804BF00224270FFF77EFA02A95D
:1016C000FFF750FF0028304610D100F0B5F8002891
:1016D000B8D000F029F800F02CF8FEF75BFE0028E7
:1016E000B4D1C8F8009000F028F8AFE700F072F825
:1016F000FEF750FE304600F09FF80028A6D00020EC
:10170000BDE8FE83DFF868814FF080597047684676
:10171000FEF788BF90F9001011F1010F704790F9A2
:10172000011011F1010F7047029906F12400FEF734
:101730001CBF30464EE087F31188BFF34F8FBFF3D5
:101740006F8F7047F8B506461546B46B326C0027AC
:1017500042B9306830BB7068FEF7FBFF00210746D6
:1017600071601FE065B9B06800F0AAF8B068316C2C
:10177000726808449042B06014D33068B06011E0E1
:10178000F06800F09DF8306CF16840420144F1606F
:101790003268914202D271680844F060022D01D192
:1017A00004B1641E641CB4633846F2BD026C002AA6
:1017B0000B4600D1704710B5C16844681144C16040
:1017C000A14224BF0168C160C168BDE8104018464D
:1017D00000F076B8F8B50546FFF7D6F905F14404F0
:1017E00094F9016070B2012815DB686A98B105F1BF
:1017F0002400FEF7E7FE08B1FEF74EFF761EF1E784
:101800002869A0B105F11000FEF7DCFE08B1FEF773
:1018100043FF7F1E08E04FF0FF366670FFF7CDF9FB
:10182000FFF7B2F994F9007078B20128E8DA26706F
:10183000BDE8F140FFF7C1B910B50446FFF7A4F9C0
:10184000A06B441EA441FFF7B8F9E00F10BD10B51E
:101850000023084C54F833201AB15B1C082BF9D331
:1018600010BD44F8331004EBC301486010BD000004
:1018700004ED00E078170020F8B504460D46164642
:10188000FFF782F904F1380797F90C0010F1010F06
:1018900004BF0021397397F90D0010F1010F04BF47
:1018A00000217973FFF789F9386828B9324629464B
:1018B00004F12400FEF76BFE2046BDE8F24089E704
:1018C00062B38B0708D0521E11F8013B00F8013BB0
:1018D00000F024808B07F6D1830740F0208000BF02
:1018E000103A07D330B4B1E83810103AA0E83810F5
:1018F000F9D230BC530724BFB1E80810A0E80810A3
:1019000044BF51F8043B40F8043BD20724BF31F8F0
:10191000022B20F8022B44BF0B7803707047121F74
:1019200017D35B0009D151F8043B20F8023B1B0C94
:10193000121F20F8023BF6D20BE051F8043B00F8EE
:10194000013B1B0A20F8023B1B0C121F00F8013B55
:10195000F3D238BF121D521E24BF11F8013B00F80C
:10196000013BF8D8704730B4002513E050F8042B41
:10197000D30744BFA9F101039A18091F042942F8AB
:10198000045BFAD213468C0744BF15809B1CC90721
:1019900048BF1D7050F8041B0029E7D130BC7047C8
:1019A00038B5040001D1012032BD00F0E4F818B9C7
:1019B00000F0DDF800F0F2FA56E090F83D10012951
:1019C00001D001207047022180F83D100068DFF847
:1019D000B021904218BFB0F1804F07D0DFF8A411BA
:1019E00088421CBFDFF8A021904209D1816801F034
:1019F0000701062908D0016841F00101016003E0F8
:101A0000026842F0010202600020704790F83D1029
:101A1000012901D001207047022180F83D100168A2
:101A2000CA6842F00102CA600068DFF854118842B7
:101A300018BFB0F1804F07D0DFF8481188421CBFB3
:101A4000DFF84421904209D1816801F0070106299D
:101A500008D0016841F00101016003E0026842F032
:101A6000010202600020704702206870211D20687A
:101A700000F0B8F90120A872A870E87028716871A8
:101A8000A871E871287268726870002032BD38B59C
:101A9000040001D1012032BD00F06DF818B900F04A
:101AA00066F800F0D9FADFE710B500F05CF809B984
:101AB000027807E0042908BF427803D008290CBF48
:101AC0008278C278012A01D0012010BD11B902220A
:101AD00002700AE0042902D10222427005E00829BE
:101AE00007BF022282700223C37000F025F800F0C5
:101AF0002CF818BFB1F1804F06D000F00FF81CBFD2
:101B0000DFF88420914205D100F011F804D000F0F4
:101B100009F801E000F014F8002010BDDFF86400BF
:101B200081427047086840F001000860704788688B
:101B300000F00700062870472068012200F020BA54
:101B40000A6842F001020A6070472168DFF830003D
:101B5000814205D1DFF880100A6842F400420A6031
:101B6000216881427047044604F13E00704700211D
:101B700029702046704704F13C05687870470000E2
:101B8000002C0140000400400008004070B5040033
:101B90000E4601D1012070BDFFF7EDFF18B9FFF728
:101BA000E6FF00F0F5FA02206870211D206800F0C1
:101BB00019F92068016821F00801016020680268B5
:101BC000164306600120A872A870E870A871E87139
:101BD0006870002070BD0000442C014010B5044620
:101BE000206801698A0715D5C1688A0712D56FF088
:101BF0000201016101222277806910F0030F204663
:101C000002D000F0C6FA03E000F0C4FA00F087F852
:101C100000202077206801694A0715D5C1684A0766
:101C200012D56FF00401016102222277806910F45D
:101C3000407F204602D000F0ACFA03E000F0AAFAA0
:101C400000F06DF800202077206801690A0715D59B
:101C5000C1680A0712D56FF00801016104222277DA
:101C6000C06910F0030F204602D000F092FA03E0A2
:101C700000F090FA00F053F8002020772068016906
:101C8000CA0615D5C168CA0612D56FF010010161E8
:101C900008222277C06910F4407F204602D000F06D
:101CA00078FA03E000F076FA00F039F800202077A7
:101CB00020680169CA0708D5C168CA0705D56FF051
:101CC00001010161204600F0BAFA206801690A06A4
:101CD00008D5C1680A0605D56FF08001016120466C
:101CE00000F0B7FA206801694A0608D5C1684A06BB
:101CF00005D56FF040010161204600F0ABFA206885
:101D000001698A060AD5C1688A0607D56FF02001E5
:101D100001612046BDE8104000F09DBA10BD20468C
:101D200000F09ABA38B500F057F801D1022032BD60
:101D3000012084F83C0032B1042A15D0082A25D0AD
:101D40000C2A34D044E0206800F07BF821688869D0
:101D500040F008008861886920F0040088618A6981
:101D6000286902438A6133E0206800F08FF8206818
:101D7000816941F400618161816921F4806181613F
:101D800081692A6941EA0221816121E0206800F02D
:101D9000A6F82168C86940F00800C861C86920F049
:101DA0000400C861CA6928690243CA6110E020685A
:101DB00000F0BDF82068C16941F40061C161C169EA
:101DC00021F48061C161C1692A6941EA0221C161CE
:101DD000002084F83C0032BD04460D4694F83C00D7
:101DE0000128704770B5624E0368624C624DB04284
:101DF00018BFB0F1804F03D0A84218BFA04209D14C
:101E00004A6823F070031343B0421CBFB0F1804F07
:101E1000A84201D0A04203D1CA6823F440731343FF
:101E20004A6923F0800313430360B0428B68C362A6
:101E30000A68826202D10969504A11600123436134
:101E400070BD70B5026A520852000262066A4468A8
:101E500085690B688A6825F073051D4326F0020624
:101E60001643434B98420BD1CA684B6926F00806CB
:101E700024F4407416438A691C4326F00406144374
:101E80004460856149684163066270BD70B5026A4D
:101E9000374E22F010020262B042056A436884693C
:101EA0000A6824F4E64444EA02248A6825F02005FE
:101EB00045EA02150DD1CA684E6925F0800545EA4C
:101EC00002158A6923F44063164325F0400543EA6E
:101ED00086034360846149688163056270BD70B5A3
:101EE000026A22F480720262056A4368C4690A6861
:101EF0008E6824F0730414431D4A25F40075904243
:101F000045EA06250DD1CA684E6925F4006545EA03
:101F100002258A6923F44053164325F4806543EA79
:101F200006134360C4614968C163056270BD70B542
:101F3000026A0F4E22F480520262B042046A426882
:101F4000C3690D6823F4E64343EA05238D6824F44E
:101F5000005444EA053404D14D6922F4804242EA37
:101F600085124260C36149680164046270BD00006B
:101F7000002C01400008004000040040302C0140CB
:101F800010B501F01F01036A01248C40A3430362D2
:101F900002FA01F1036A1943016210BD70470000A3
:101FA00030B500BF74A16A4CD1E9002389B000F0BC
:101FB00043F800F047F84FF0804511E030B500BF1E
:101FC0006FA1644C644D04E030B500BF6EA1634C5A
:101FD000634DD1E9002389B000F02EF800F032F80B
:101FE0002161A16125602046FFF751FD08B100F095
:101FF0002FF908212046FFF7C9FD08B100F028F9A4
:102000000021009101912046694600F027F908B1AE
:1020100000F01EF9602102910022039204920692C0
:1020200002A92046FFF77EFE08B100F011F9204614
:1020300000F039F809B030BD02A8CDE900231C2119
:1020400000F03EB940F2CF2060601021A1604FF453
:102050007A70E0600021704781B000684149B0F1BA
:10206000804F07D1086840F001000860096801F05E
:10207000010114E0384A904207D1086840F002009C
:102080000860096801F0020109E0354A904208D170
:10209000086840F004000860096801F0040100913C
:1020A000009801B0704718B585B004466846102105
:1020B00000F006F921682C4C2C4AB1F1804F1AD15E
:1020C000106840F004001060116801F004010491F0
:1020D0004FF4004104980091022201920392694654
:1020E000234800F0F1F8206820F4407040F0E060F0
:1020F00040F480700FE0184B1E4899420DD100F05B
:102100001DF8102200F013F8206820F4406040F021
:10211000E06040F40060206007E0114B994204D178
:1021200000F00CF8402200F002F806B010BD04994F
:10213000009201930393694600F0C6B8116841F01C
:10214000080111600223126802F00802049270472D
:102150005C160020A416002000040040EC160020AD
:10216000000800401C10024004000140181002400A
:1021700000080140000C01400000000000000000C9
:10218000000000000000000000000000000000004F
:10219000704770477047000080B500F087F900F085
:1021A00015F800F095F900F019FA00F02FFA00F098
:1021B000B7FAFFF7F5FEFFF701FFFFF705FFFEF7A0
:1021C00059FD00F0CFFAFEF76FFDFEE700B593B0C2
:1021D00009A8282100F074F804A8142100F070F870
:1021E0006846102100F06CF80921099101234FF491
:1021F00080310A910D930F931191002202234FF425
:10220000E0110B921093129109A800F02DFC02210D
:1022100005910F204FF480610490002207910692EF
:102220000892022104A800F0AFFD02214FF4004201
:1022300000910292684600F08FFE13B000BD006866
:102240000249884208BF00F0FBBE7047002C0140E5
:1022500070477047704770477047000070B500F1D5
:102260003C031A78012A01D1022070BD01221A70A4
:1022700002245C7005686E68AC680A6826F0700617
:1022800016436E6002680C48824218BFB2F1804F5C
:1022900005D00A4882421CBF064DAA4204D14868B4
:1022A00024F08004044394600121597000201870C8
:1022B00070BD000000080040002C014000040040F8
:1022C0000022FEF79DBB00002DE9F8470027BE461F
:1022D000674A684B4FF00F0882460BE0D6683040E3
:1022E000D06006E094604C68A402F7D5D06806433D
:1022F000D6607F1C0E6836FA07F000F0A38001203C
:1023000000FA07F52E40AE42F3D1486858B30128D1
:102310001AD002281FD0032833D0112817D0122832
:102320001DD0554CA0421CBF544CA0421BD0544C55
:10233000A0421CBF534CA04215D0534CA0421CBF1E
:10234000524CA0420FD01EE0D1F80CE01BE0C86850
:1023500000F1040E17E0C86800F1080E13E0C86829
:1023600000F10C0E0FE0886810B94FF0040E0AE07F
:1023700001284FF0080E14BFCAF81450CAF81050C4
:1023800001E04FF0000EB6F5807F03D250464FEAD1
:10239000870C05E0A7F108040AF104004FEA840C59
:1023A000046808FA0CF5AC430EFA0CF52C430460F3
:1023B0004868C0009DD51868DFF8D4C040F001001F
:1023C00018601C6804F001040094BC000098B80870
:1023D0005CF8205004F00C0408FA04F925EA090915
:1023E0002C4DAA4508BF00250ED02B4DAA4508BF8D
:1023F000012509D0294DAA4508BF022504D0284D42
:10240000AA450CBF0325042505FA04F444EA09048F
:102410004CF82040F0434C68E40314684CBF34434C
:10242000044014604C68A40354684CBF3443044017
:1024300054604C689568E4024CBF46EA050400EA23
:1024400005044FE7BDE8F1878068084018BF012008
:10245000C0B2704702B9090401617047114A13689C
:1024600003421CBF106000F01FB87047000000005E
:10247000000401401810024000001110000012106A
:102480000000211000002210000031100000321066
:102490000800014000080140000C0140001001400C
:1024A00000140140140401407047000080B5074843
:1024B000016841F010010160032000F0D6FD00200A
:1024C00000F012FE00F04CFE002002BD0020024091
:1024D00078B585B068461021FFF7F2FE3348344ED8
:1024E0000468344D44F0100404600168324C01F07B
:1024F000100104910499026842F02002026003680E
:1025000003F0200304930499026842F0040202607D
:10251000036803F0040304930499026842F008027C
:1025200002600022006800F0080004904FF400519F
:1025300004983046FFF78EFF00224FF420412046DA
:10254000FFF788FF00224FF480712846FFF782FFD3
:102550004FF4005100F039F83046FFF7B5FE802007
:102560000021009002916946144E01962846FFF71B
:10257000ABFE032100910196002100F021F84FF4F9
:10258000A04000210090019100F01AF84FF4204182
:1025900000F01BF82046FFF797FE4FF4807100F023
:1025A00014F82846FFF790FE06B070BD18100240E0
:1025B0000010014000080140000C014000003110F3
:1025C000029120466946FFF77FBE009101220192E9
:1025D00000210291022203926946704780B50A48A1
:1025E000016841F0010101600022006800F0010073
:1025F0000090002100980B2000F044FDBDE802404F
:102600000B2000F05CBD00BF141002403EB56846D0
:1026100000210022002380E80E004FF480703A4C25
:1026200021732175A0604FF46021E1610321374DD2
:10263000626021612560204600F0B4FD08B1FFF71B
:1026400007FE00200121009001910622029200F075
:1026500015F808B1FFF7FCFD01210091022200F0FE
:102660000CF808B1FFF7F4FD02210091032200F0FD
:1026700004F808B1FFF7ECFD37BD0192694620462A
:1026800000F0E3BE78B585B0044601A81021FFF73D
:1026900017FE25681D4EB54233D11D481D4D0168FA
:1026A00041F4007101600323026802F40072009299
:1026B0000099026842F0040202600722006800F0FC
:1026C0000400009000990192029301A91248FFF7BB
:1026D000FBFD1248286000218020E86069604FF40B
:1026E000806000224FF480716861AA602961AA614C
:1026F000EA61284600F0CCFF08B1FFF7A9FD25628A
:102700006C6206B070BD0000B817002000240140C4
:102710001810024034170020000801400800024051
:1027200080B508480849062240F6FF730160426000
:10273000836001F004F918B1BDE80140FFF788BDDE
:1027400001BD00BFF817002000300040010007D491
:10275000012200F01F01A94B8A40400943F82020C4
:102760007047000010B500BFBBA30FF21D20002270
:102770000021A34CFEF73CFB60600021ADA20FF2EC
:102780000D00FEF7B2FA206010BD00002DE9FC41FB
:102790009C4C00F0F3F89C4D00F0EAF8002200F0A9
:1027A000E2F89A4E002200F0D9F84FF48041284612
:1027B000FFF74AFE964FDFF85C82012808BFF870E9
:1027C0009548FFF7FAF80620FFF7C0FF0720FFF74C
:1027D000BDFF1720FFF7BAFF03226946404600F00D
:1027E0007FFD0220FEF7E2FA404600F05BFD404626
:1027F00000F0FDFDBDF80210DFF820828908397174
:10280000BDF80010C9087971BDF80400C0082C306B
:10281000B8710A2010E000F0ABF802E00020B881A7
:10282000F871B8897E497F4A7F4B08601060186054
:10283000404601F0ADF80220FEF7B8FA4FF480519F
:102840002846FFF701FE01280AD1F879012804D1B2
:1028500002210020F971F88111E00121F9710EE0E7
:10286000F97903292FD0012002292DD1012200213D
:102870001040084303D003200021F871F981B97892
:102880007A7838781143084205D0397A787A8142CB
:102890001FD200F073F8F879022830D13879FA891C
:1028A00082424FF47A7126D228B3BB79C3F57A7C81
:1028B00092FBF0F000FB0C33BB81B889B0F57A7F56
:1028C000D8BF014615E0002000220429CFD1012104
:1028D000CEE7012200F053F80020F871002200F04A
:1028E00048F8F879002803BF0021B98100220122AD
:1028F00009E0B981F2E70420B981F87101E0042808
:10290000ECD10122EBE700F029F8F879032882D115
:10291000F87868B10021B9810520FEF747FA012255
:1029200000F021F87879F989884216D2002077E7FB
:102930007879F9898142BFF471AF00283FF46EAF16
:10294000BA79134691FBF0F04343C3F57A73BB8128
:10295000B889904228BF0246BA8162E74FF480717D
:102960003046FFF777BD4FF400412846FFF772BDB0
:1029700000224FF400512846FFF76CBD00224FF4AF
:1029800000512046FFF766BD704780B50120FFF774
:1029900065FD1F48C28901210170521C0021C281BE
:1029A0008172C07920B1BDE804402048FFF77CB8AF
:1029B00001BD10B50220FFF751FD154CE079012152
:1029C000617018B104211448FFF76EF8A07A401C1A
:1029D000A072207210BD10B58020FFF73FFD0C4C97
:1029E000E0790121A17018B108211148FFF75CF8C6
:1029F000A07A401CA072607210BD000000E100E0EF
:102A00000418002000100140000C014000080140A3
:102A1000E8170020B8170020A4160020F81700209F
:102A20003400004034040040340800405C160020AC
:102A3000EC160020AC3A0008000000000000000086
:102A40000000000000000000000200000D00000077
:102A50000000000000000000B83A0008000000007C
:102A600000000000000000002DE9F843040016D02B
:102A70002078DFF8A064C10713D5706800F00C005F
:102A8000042807D0706800F00C00082840D1706856
:102A9000C1033DD53068810303D56068002800F08C
:102AA000F4802078DFF87C74810719D5706810F005
:102AB0000C0F07D0706800F00C00082860D1706817
:102AC000C1035DD43068810703D52069012840F037
:102AD000DC803168606921F0F80141EAC0013160B1
:102AE0002178080770D5A069DFF83C14002865D06C
:102AF00001220A6000F052FF0546706A810700F16A
:102B0000C68000F04BFF401B0228F6D9032035E1B8
:102B10006068B0F5803F04D1306840F480303060A8
:102B200014E008B930680AE0B0F5A02F306806D18B
:102B300040F480203060316841F4803105E020F4B9
:102B400080303060316821F480213160606858B194
:102B500000F024FF054630688103A2D400F01EFF78
:102B6000401B6528F7D3D1E700F018FF0546306811
:102B7000810396D500F012FF401B6528F7D3C5E707
:102B8000206970B10121396000F008FF0546306806
:102B9000810700F1B68000F001FF401B0228F6D942
:102BA000B4E7386000F0FAFE05463168880797D52B
:102BB00000F0F4FE401B0228F7D9A7E7086000F0F8
:102BC000EDFE0546706A810770D500F0E7FE401BF8
:102BD0000228F7D99AE708B9306A09E00528306A6F
:102BE00006D140F004003062306A40F0010005E098
:102BF000400840003062306A20F00400306241F248
:102C00008938E06868B100F0C9FE8146306A810702
:102C100000F1848000F0C2FEA0EB09004045F5D32E
:102C200074E700F0BBFE8146306A810776D500F07C
:102C3000B5FEA0EB09004045F6D367E700F0AEFE15
:102C4000401B02287BD961E700F0A8FE001B022888
:102C500040F28F805AE700F093F804463068810113
:102C600040F18B8000F09AFE001B0228F6D94DE758
:102C700001280AD07068226A00F48031914202BFB4
:102C800000F47010616A884277D0012076E0DFF8A6
:102C900088020168C9084FF47A72B1FBF2F200921F
:102CA00000BF0098411E00280091F9D1207841070B
:102CB00039D5F0690025C10009D4F06940F0805091
:102CC000F0610125F06900F0805000900098DFF875
:102CD0005C82D8F80000C1051BD4D8F8000040F48D
:102CE0008070C8F8000000F059FE8146D8F8000056
:102CF000C1050ED400F052FEA0EB09006528F5D303
:102D000004E73068616920F0F80040EAC1003060F3
:102D1000E6E6E06801287FF45EAF65E71DB1F06983
:102D200020F08050F061E06938B3716801F00C0167
:102D300008299DD002288ED100F022F8054630687F
:102D400081013FF57BAF206AB0F5803F05D1716806
:102D5000A06821F40031014371607268206A616AE1
:102D600022F4741202430A437260012000F009F851
:102D70000446306881017FF567AF0020BDE8F2832B
:102D80000020386600F00ABE2DE9F04104008846B4
:102D900072D0674E00F077F802D200F06FF86BD176
:102DA00020685C4D810712D5400703D5696841F45E
:102DB000E06169602078010703D5686840F46050DD
:102DC00068606968A06821F0F001014369602178BA
:102DD000C80749D56068012802D129688A0303E041
:102DE0000228296802D18A0102D445E08A0743D526
:102DF0006968890840EA8100686000F0CFFD0746F5
:102E00006868616800F00C00B0EB810F2CD000F016
:102E1000C5FDC01B41F289318842F1D3032021E076
:102E20002078410705D56A68E06822F4E062024331
:102E30006A602178080706D56968206921F4605125
:102E400041EAC001696000F023F86A683949324BF1
:102E5000C2F30312895CC84018603148006800F072
:102E600043F90020BDE8F081306800F0070080459C
:102E7000D6D200F003F8D3D00120F3E73168C908B7
:102E800048EAC1013160306800F0070040457047F2
:102E9000294922480A6802F00C03082B00D0704729
:102EA00010B500BF27A4C2F38343D203E35C08D567
:102EB0000968584327A3C1F340415A5CB0FBF2F0C4
:102EC00010BD18461D49484310BD13481A4A0068F2
:102ED00013681B49C3F3C222895CC840704710B510
:102EE0000F220260144A136803F00303436014685E
:102EF00004F0F0048460136803F4E063C3601268B4
:102F0000D20802F4E06202610948026802F0070296
:102F10000A6010BD001002401800002000127A0064
:102F20001400002000004242800442420070004031
:102F300000200240C83A00080410024000093D0089
:102F4000F43A000802030405060708090A0B0C0DF1
:102F50000E0F1010010200002DE9FC410646354D10
:102F60003078C10750D5A8690024C10009D4A869E8
:102F700040F08050A8610124A86900F080500090C2
:102F800000982D4F3868C10519D4386840F4807016
:102F9000386000F003FD80463868C1050FD400F0AA
:102FA000FDFCA0EB08006528F6D303203FE000F00D
:102FB000F5FCC01B41F28931884217D3F5E7E86977
:102FC00010F440701EBF716801F44071884210D047
:102FD0001A49E86901220A60002320F440700B605E
:102FE000E861C00705D500F0D9FC0746E86981070C
:102FF000DDD5EA69706822F440720243EA611CB1CF
:10300000A86920F08050A8613078810705D52A682A
:10301000B06822F4404202432A603178C80605D5E0
:103020002968F06821F48001014329600020BDE88F
:10303000F68100000410024000700040400442424B
:1030400002494A68087882184A6070470C000020DC
:103050000901020002D41F48815470471E4B02F040
:103060000F021A4402F8041C70471C4B19684FF6F3
:10307000FF020002114000F4E060084318490843D1
:103080001860704738B5154B1C68C4F30223C3F1B0
:103090000704052C28BF04241D1D072D34BF002361
:1030A000DB1E012505FA04F4641E2140994005FA4F
:1030B00003F35B1E1A401143BDE83440C8E701002A
:1030C00007D4012200F01F01064B8A40400943F853
:1030D0002020704700E400E018ED00E00CED00E077
:1030E0000000FA0500E100E018B5014687B00022B3
:1030F0001920FFF7C7FF1920FFF7E1FF1448154C0F
:10310000016841F40061016001A9006800F40060F9
:103110000090009802A8FFF7E2FEFFF7D6FE0E49E6
:103120000E4B2160B0FBF3F0401E40F2E7326060CE
:103130000021E2602161A1602046FEF731FC18B950
:103140002046FEF763FC00E0012008B010BD00003F
:103150001810024014160020002C014040420F00BD
:103160000E4881B0016841F001010160026802F07F
:10317000010200920099426842F080524260406829
:1031800000F08050009000980548016821F0E0614F
:1031900041F00071016001B0704700BF181002409B
:1031A00004000140F8B5044600270026002C71D029
:1031B00004F12405686820B9AE6028702046FFF746
:1031C00061FA204600F008FA6968CA065ED4010078
:1031D0005CD1696821F4885141F00201696063683B
:1031E000E269217B1343A268B2F5807F14BF012AF4
:1031F0004FF48077227D012A43EA41030FD131B990
:10320000A169491E490341F400610F4307E0696861
:1032100041F020016960A96841F00101A9602168BD
:103220004A6822F4694217434F602268DFF884132A
:1032300097680F401F439760A168B1F5807F18BF62
:10324000012902D12669761E36052168CA6A22F450
:1032500070021643CE622468DFF85C13A2680A404D
:103260009A4208D10023AB60696821F0020141F065
:1032700001016960F2BD686820F0020040F01000B2
:103280006860A86840F00100A86003E0686840F04A
:10329000100068600120F2BD044604F1240528787E
:1032A0000128704710B500F124042178012901D1CB
:1032B000022010BD0121217000F08EF9010001D122
:1032C00000F007F80021217010BD01202870204671
:1032D00039E1616821F4885141F001016160704772
:1032E0002DE9F047044689462068DFF8E012DFF850
:1032F000D482DFF8D472884218BF4045924603D189
:10330000386810F4702F68D1FFF7C7FF08BF02209C
:1033100065D0FFF7DAFF002806465BD16968DFF861
:10332000A002014041F4807169602068404518D1D5
:10333000396811F4702F14D0686840F48010686008
:103340003968480505D5696821F4005141F4805178
:1033500069606868C10446BFA86820F006000020C4
:103360000DE0696821F48011696040684105F0D57D
:10337000686820F4005040F480506860E9E7A86075
:10338000002129705346226A0FF29D209062216A23
:103390000FF2DD20C862216A0FF2DD2008636FF0B2
:1033A0000200226810604A462068816841F48071FA
:1033B0008160206800F14C01206A00F096F92068D5
:1033C00000F00FF881680CBF41F4A00141F48011B6
:1033D000816003E00020287000E001263046BDE84F
:1033E000F087816801F46021B1F5602F704738B52E
:1033F00000F021F801D1022032BD00F022F80100D6
:1034000016D129688A6822F480728A60296A91F844
:103410002120022A0CD1084600F0A1F901006168C0
:1034200006BF21F4885141F0010141F04001616083
:103430000021217032BD054605F1240420780128C1
:103440007047012020702846C6E0F8B50A460021E2
:1034500000F1240300911C78012C01D10220F2BD5F
:1034600001241C701F27546815680668072C08D2B1
:10347000641E04EB8404D6F834C000F05EF8756373
:1034800012E00D2C08D2E41F04EB8404D6F830C0FF
:1034900000F053F8356307E00D3C04EB8404D6F8E4
:1034A0002CC000F04AF8F562072716689468056892
:1034B0000A2E08D30A3E06EB4606D5F80CC000F0EB
:1034C00036F8EC6006E006EB4606D5F810C000F0D2
:1034D0002EF82C611468102C18BF112C23D1006811
:1034E0003A4CA0421AD13A4805682C021BD4056810
:1034F00045F4000505601068102814D12F4A354D99
:103500001468B4FBF5F50A2045430095009800289F
:103510001EBF0098401E0090F8D104E001215868B9
:1035200040F020005860002018700846F2BDB740F7
:103530002CEA0707B4403C437047A7402CEA070732
:10354000A5403D43704738B50446002000902068F0
:103550008168CA072CD481681E4A41F0010181604C
:1035600016480168B1FBF2F2009202E00098401E9A
:10357000009000980028F9D100F010FA054600F0FC
:103580004FF815D400F00AFA401B0328F7D300F0D7
:1035900047F8F4D404F124000022416841F01001FE
:1035A0004160816841F0010181600270012032BDFB
:1035B000002032BDFDF7E1FFFE0E1FFF18000020C6
:1035C000FEF1FFFF002801400424014000240140D7
:1035D0000824014040420F0038B504462068816845
:1035E000CA071BD5816849084900816000F0D6F9F7
:1035F000054600F015F811D500F0D0F9401B03285E
:10360000F7D300F00DF8F4D5A16A41F01001A162E2
:10361000E06A40F00100E062012032BD002032BDCE
:1036200020688168C8077047416A8A6A12F0500FA3
:103630001BD1886A40F4007088620A68906800F4C0
:103640006020B0F5602F04BF087B00280AD1886A8B
:1036500020F480708862886AC20403D4886A40F0CB
:1036600001008862084600F09FB9096A0A6B10479A
:10367000406A00F09AB90000406A816A41F0400156
:103680008162C16A41F00401C16200F08FB900009B
:1036900030B508B9012030BD0468DFF85C120919A3
:1036A000142200F13803B1FBF2F292009A60022278
:1036B000DFF84812596080F8212025684168826847
:1036C0006FF30D150D43C168154302690D43416940
:1036D000154382690D43C16915430D4325600024DC
:1036E0001C6000F061F8002030BDF8B504460025EC
:1036F00094F82000012801D10220F2BD94F8216045
:103700000120012E84F8200024D1022004F12C068F
:1037100084F82100F560206807687F087F00076053
:10372000204600F0FBF82168306820B10A6842F0BA
:103730000E020A6008E0086820F0040008602068B3
:10374000016841F00A0101602068016841F001014F
:10375000016002E084F8205002252846F2BD10B531
:1037600090F82110022900F1380206D004231360DA
:10377000002180F82010012010BD01680B6823F0A3
:103780000E030B60012301680C68640864000C6080
:10379000916852688B4053600121002280F821100B
:1037A00080F82020002010BD012280F8212080F820
:1037B000204070472DE9F84F00F128020427516995
:1037C000544BD1F800E0056853492E68D2F818A090
:1037D0004F4CDFF83881DFF83091DFF828B1DFF89F
:1037E00020C107FA0AF71EEA070F2DD077072BD55D
:1037F0002E68B60603D42E6826F004062E600568EF
:10380000654508BF042318D05D4508BF402314D088
:103810004D4508BF4FF480630FD0454508BF4FF4B6
:1038200080430AD0A54208BF4FF4802305D09D42B3
:103830000CBF4FF480034FF080630B605168002988
:1038400058D0BDE8F44F0847022707FA0AF71EEAE6
:10385000070F32D0B70730D52E68B60606D42E68CB
:1038600026F00A062E60012580F82150056865457E
:1038700008BF022318D05D4508BF202314D04D4552
:1038800008BF4FF400730FD0454508BF4FF40053F5
:103890000AD0A54208BF4FF4003305D09D420CBFAB
:1038A0004FF400134FF000730B60002180F82010DC
:1038B0001168F9B1BDE8F44F0847082101FA0AF18F
:1038C0001EEA010F16D0310714D52B6823F00E0322
:1038D0002B600124916953698C405C600121116166
:1038E00080F82110002180F82010916811B1BDE806
:1038F000F44F0847BDE8F18FF8FFFDBF000002401C
:10390000080002401C000240300002404400024017
:10391000580002406C0002400400024070B5046C84
:10392000C66B0125A5407560046863604068102877
:1039300002D1A260E16070BDA160E26070BD38B5E7
:10394000040001D1012032BD20684CF6CC41016059
:1039500045F25552026063684360A168816000F0DF
:103960001DF805462068C16811F0030F0BD000F068
:1039700015F8401B2828F5D32068C16811F0030F03
:10398000F0D0032032BD4AF6AA210160002032BDEA
:1039900000684AF6AA21016000207047014840688B
:1039A000704700BF0C00002070477047704730B46C
:1039B00050F8041B79B10268436802440830DC0700
:1039C00044BFA9F10104E31852F8045B43F8045B17
:1039D000091FF9D1ECE730BC7047000010B507496A
:1039E00079441831064C7C44163404E00A68081DFA
:1039F000114488470146A142F8D110BD08000000DB
:103A00002800000063DFFFFFF41700001C00002007
:103A1000000000009BFFFFFF1C000000740000007E
:103A200000000020000000007047FEE7FEE7FEE710
:103A3000FEE770470248FFF7BDBE0248FEF7CEB86A
:103A4000341700201416002000F00DF8002801D0D3
:103A5000FFF7C4FFAFF300800020AFF30080FEF754
:103A60009BFB00F002F80120704700F001B8000055
:103A70000746384600F002F8FBE7000080B5AFF3D8
:103A80000080024A11001820ABBEFBE726000200AE
:103A900000000000AAAAAAAA00000000010000007D
:103AA00000000000100000000024F4006D61696E49
:103AB0005F7461736B00000053746F7054696D65BF
:103AC00072000000704700000000000000000000CD
:103AD000010203040607080901488047014800471E
:103AE000C53A0008E93A0008AFF30080AFF3008060
:103AF000FFF7AAFF0000000001020304FFF7FEBF6A
:103B0000FFF7FEBFFFF7FEBFFFF7FEBFFFF7FEBFE9
:103B1000FFF7FEBFFFF7FEBFFFF7FEBFFFF7FEBFD9
:103B2000FFF7FEBFFFF7FEBFFFF7FEBFFFF7FEBFC9
:103B3000FFF7FEBFFFF7FEBFFFF7FEBFFFF7FEBFB9
:103B4000FFF7FEBFFFF7FEBFFFF7FEBFFFF7FEBFA9
:103B5000FFF7FEBFFFF7FEBFFFF7FEBFFFF7FEBF99
:103B6000FFF7FEBFFFF7FEBFFFF7FEBFFFF7FEBF89
:103B7000FFF7FEBFFFF7FEBFFFF7FEBFFFF7FEBF79
:103B8000FFF7FEBFFFF7FEBFFFF7FEBFFFF7FEBF69
:043B9000FFF7FEBF7E
:0400000508003AE9CC
:00000001FF
