:020000040800F2
:10000000701301206D4F0008D54B0008D74B000836
:10001000D94B0008DB4B0008DD4B00080000000056
:10002000000000000000000000000000054400087F
:10003000DF4B000800000000AD4300085720000817
:10004000914F0008954F0008994F00089D4F0008F8
:10005000A14F0008A54F0008A94F0008AD4F0008A8
:10006000B14F0008E14B0008334C0008894C0008F0
:10007000B54F0008B94F0008BD4F0008C14F000838
:10008000C54F0008C94F0008CD4F0008D14F0008E8
:10009000D54F0008D94F0008DD4F00088F4C0008ED
:1000A000E14F0008E54F0008E74C0008E94F000861
:1000B000ED4F0008ED4C00082D4D0008F14F0008F1
:1000C000F54F0008F94F0008FD4F000801500008E7
:1000D00005500008095000080D5000081150000894
:1000E00015500008195000081D5000082150000844
:1000F000714D000825500008295000082D500008B7
:100100003150000835500008395000083D500008B3
:100110004150000845500008495000084D50000863
:100120005150000855500008595000085D50000813
:100130006150000865500008695000086D500008C3
:100140007150000875500008795000080000000048
:10015000000000000000000000000000000000009F
:100160000000000000000000000000007D500008BA
:100170008150000885500008895000088D50000803
:100180009150000895500008995000089D500008B3
:10019000A150000800000000A5500008A950000868
:1001A000AD500008B1500008B5500008B950000823
:1001B000BD500008C1500008C5500008C9500008D3
:1001C000CD500008D1500008D5500008D950000883
:1001D000DD500008E1500008826822F47C121143CF
:1001E00081607047826822F0E0721143816070473D
:1001F000806800F0E070704710B400F1600404EB18
:1002000081042168DFF81C04014002F0F8420A432F
:100210001A4342F00042226010BC7047603000EB8D
:100220008100006800F0F8407047603000EB81000A
:10023000016821F000410A4302607047603000EB22
:100240008100016821F080710A43026070476030CC
:1002500000EB8100016821F000710A4302607047E1
:10026000426922F00042114341617047C06800F4C6
:100270004060401E8041C00F704710B400F1300351
:100280000846800900F00C00C01801F01F01036847
:100290001F248C40A343C2F3846202FA01F1194384
:1002A000016010BC704710B400F114030846C00D83
:1002B00000F00400C018090D01F01F0104680723B5
:1002C0008B409C4302FA01F12143016010BC70474E
:1002D00010B4D0F8B040C1F312039C43DFF84833A8
:1002E00002F01802D34019402143C0F8B01010BCEE
:1002F0007047806800F01F0070478268DFF85C1468
:100300000A40826070478068400F00F0010070472B
:100310008268DFF84C140A4042F0805282607047D5
:100320008068000F00F0010070478268DFF8301429
:100330000A4042F00102826070478268DFF82014B0
:100340000A4042F0020282607047806800F00100BB
:1003500070478068400800F0010070478268DFF84D
:1003600000140A4042F00402826070478268DFF89D
:10037000F0130A4042F010028260704780688008E3
:1003800000F0010070478268DFF8D4130A4042F0A1
:100390002002826070478068C00800F0010070474A
:1003A0002DE9FC410446002630460090002C01D186
:1003B000012015E104F158056868002805D12046A0
:1003C00000F021FE3046A86028702068FFF79BFFF0
:1003D000002802D02068FFF790FF2068FFF7A0FFF9
:1003E000002813D12068FFF793FFDFF87803016836
:1003F000DFF87403B1FBF0F0401C4000009002E015
:100400000098401E009000980028F9D12068FFF75E
:1004100087FF002808D1686840F010006860A8686D
:1004200040F00100A86001262068FFF7A7FF696877
:10043000C90600F1CF80002840F0CC80686820F425
:10044000807040F0020068602068FFF77EFF00289F
:100450003CD12168DFF81473B1F1A04F03D0DFF86D
:100460001003814201D1384601E0DFF80803B842A9
:100470000BD14FF0A040FFF768FF8046DFF8F00295
:10048000FFF763FF40EA080010E0DFF8EC02FFF737
:100490005CFF8046DFF8E402FFF757FF40EA0808F8
:1004A000DFF8DC02FFF751FF40EA080000280DD119
:1004B0002168B1F1A04F05D0DFF8B402814201D02C
:1004C000DFF8B07261683846FFF786FE04F1240752
:1004D0003A78607FBB6943EA4033E0680343A16830
:1004E0001943104641EA0041012A03D17868401EB1
:1004F00041EA4041B868002805D000F47870014313
:100500000846F96801432368DA68DFF87802024098
:100510001143D9602268116921F0406138690143B3
:1005200011612068FFF737FF00283ED12168CA68B3
:10053000DFF854020240207F42EA8032387D42EAEE
:100540004002CA6021682069002808690CD040F484
:10055000803008612268D2F8C010890B206950EA07
:100560008131C2F8C01009E020F4803008612068B1
:10057000D0F8C010890B8903C0F8C0102168387FFB
:1005800001280ED10A696FF38A02386A0243786A39
:100590000243B86A0243F86A024342F001020A6168
:1005A00003E008694008400008612068616901298A
:1005B000016B06D10909226A521E52EA0111016338
:1005C00002E00909090101630121686861F3010082
:1005D000686004E0686840F01000686001263046FA
:1005E000BDE8F68138B5044604F15805287801289D
:1005F00001D1022032BD012028700321204600F0E5
:100600001FFB01000AD1204600F008FC010005D1C3
:10061000696821F4885141F0010169600021297065
:1006200032BD000000F0FF03FFFF07002DE9F84393
:1006300005460E4617462868B0F1A04F02D04C4937
:10064000884201D1494800E04A48FFF752FE04467B
:100650002868FFF793FE00287BD105F1580898F829
:100660000000012801D1022076E0012088F8000076
:1006700029684348814205D0002C03D0052C01D0C5
:10068000092C60D1284600F04FFB8146002856D146
:10069000D8F80410DFF87001014041F48071C8F807
:1006A000041028683249884202D14FF0A04105E089
:1006B0003249884201D1304900E00146814201D0EF
:1006C000002C05D1D8F8040020F48010C8F80400EC
:1006D000D8F80400C00406D5D8F8080020F00600B9
:1006E000C8F8080002E00020C8F80800DFF8481544
:1006F000686DC162DFF84405696D0863DFF8201694
:10070000686D41631C2128680160002088F80000A2
:100710002968486840F0100048602968C86840F0BF
:100720000100C8603B463246286800F14001686D10
:1007300000F033FD81462868FFF710FE0BE0002033
:1007400088F8000007E04FF00109002088F8000059
:1007500001E04FF002094846BDE8F283C0FFFF5FA9
:10076000C0FFFF7F18000020400D03000003005071
:100770000001005000070050000400500005005028
:10078000000600500740F0FFFDBFFFFF70B50446B4
:1007900004F158052878012801D1022070BD0120FC
:1007A00028700321204600F04BFA060027D121686B
:1007B000C86840084000C860606D90F825100229A4
:1007C00007D100F030FD060003D0686840F040001B
:1007D00068602168486820F01000486030002046BA
:1007E00003D100F01BFB064601E000F017FB3000D0
:1007F00005D1686820F4885040F00100686000204E
:100800002870304670BD0000FEF1FFFF2DE9FC416D
:1008100080460F4600252846009008F1580630789B
:10082000012801D1022005E201203070D8F8000033
:10083000FFF7A4FD002840F0F5813A687968D8F800
:100840000000FFF71AFDD8F80000FFF797FD0446F7
:10085000D8F80000FFF79FFD044340F0DD80BA6840
:10086000D8F800003968B2F1004F09D12A46FFF7E5
:100870001AFD4FF00041D8F80000FFF7F1FC06E048
:10088000FFF711FD2946D8F80000FFF7E9FCD8F87A
:1008900000007B69C168C908490001F006018B406E
:1008A0003969042915D03A68FFF7A6FCBA69396995
:1008B000D8F80000FFF7C2FC387F012802D14FF0C2
:1008C000007200E02A463969D8F80000FFF7BFFC43
:1008D000A2E02946FFF7A2FC40032946D8F8000011
:1008E00004D1FFF79BFCC0F3846005E0FFF796FCA2
:1008F00090FAA0F0B0FA80F039684A0302D1C1F34F
:10090000846103E091FAA1F1B1FA81F1884205D145
:100910002A461146D8F80000FFF787FC0121D8F8D5
:100920000000FFF77BFC400307D10121D8F800004D
:10093000FFF774FCC0F3846008E00121D8F80000E0
:10094000FFF76CFC90FAA0F0B0FA80F039684A0327
:1009500002D1C1F3846103E091FAA1F1B1FA81F10E
:10096000884205D12A460121D8F80000FFF75DFC36
:100970000221D8F80000FFF751FC400307D1022103
:10098000D8F80000FFF74AFCC0F3846008E00221B9
:10099000D8F80000FFF742FC90FAA0F0B0FA80F01F
:1009A00039684A0302D1C1F3846103E091FAA1F1ED
:1009B000B1FA81F1884205D12A460221D8F8000017
:1009C000FFF733FC0321D8F80000FFF727FC4003B2
:1009D00007D10321D8F80000FFF720FCC0F38460A2
:1009E00008E00321D8F80000FFF718FC90FAA0F007
:1009F000B0FA80F03A68510302D1C2F3846103E097
:100A000092FAA2F1B1FA81F1884205D12A46032176
:100A1000D8F80000FFF709FCD8F80000FFF795FCB4
:100A2000002877D1FA683968D8F80000FFF750FC41
:100A3000F968DFF8BC0381426CD13868410302D108
:100A4000C0F3846103E090FAA0F1B1FA81F1491C8E
:100A500001F01F010A292BD2410302D1C0F38461A6
:100A600003E090FAA0F1B1FA81F102D1C0F38462FF
:100A700003E090FAA0F2B2FA82F202D1C0F38463EA
:100A800003E090FAA0F0B0FA80F3491C890601F067
:100A9000F8410120521C02F01F0200FA02F2114339
:100AA0005B1C03F01F0303EB430341EA03512CE0FB
:100AB000410302D1C0F3846203E090FAA0F1B1FADD
:100AC00081F202D1C0F3846303E090FAA0F1B1FA9D
:100AD00081F302D1C0F3846003E090FAA0F0B0FA91
:100AE00080F0521C920602F0F84201215B1C03F0D8
:100AF0001F0399401143401C00F01F000A3800EB0F
:100B0000400041EA005141F00071BA68D8F8000095
:100B1000FFF7C9FB3968DFF8DC02014200F087808B
:100B2000D8F80000B0F1A04F03D0DFF8F8118842E8
:100B300002D1DFF8B00201E0DFF8AC02FFF758FBAA
:100B400001463868DFF8B022904203D0DFF8AC22CB
:100B500090422DD10A022BD4D8F80000B0F1A04F5A
:100B600003D0DFF89C22904261D1B0F1A04F03D0B6
:100B7000DFF8B021904202D1DFF8680201E0DFF82F
:100B8000680241F40001FFF72DFBDFF878020068EE
:100B9000DFF87412B0FBF1F0401C00EB400188005C
:100BA00000900098002842D00098401E0090F8E77E
:100BB000DFF8582290421AD1CA0118D4D8F8003070
:100BC000DFF86001834203D1DFF8202293422ED068
:100BD000B3F1A04F01D0834202D1DFF8080201E057
:100BE000DFF8040241F08071FFF7FCFA1FE0DFF844
:100BF000202290421BD1480219D4D8F80020DFF8F7
:100C00002401824213D0B2F1A04F01D0824202D11E
:100C1000DFF8D00101E0DFF8D00141F48001FFF7F7
:100C2000E1FA04E0706840F02000706001250020C7
:100C300030702846BDE8F681990E00081D0F0008A7
:100C4000F8B505460E4600272868FFF797FB0446CF
:100C50002868FFF7A0FB044360D02868C0688001C3
:100C60001BD5687F012818D1287F012815D10126BE
:100C700000E07F1C2868016849060CD4654887425B
:100C8000F7D3E86D40F01000E865286E40F00100F1
:100C900028663046F2BD40210160022E0CD0286843
:100CA000FFF76CFB002807D02868FFF752FB0028ED
:100CB00002D12868FFF75AFB012E0CD02868FFF7F5
:100CC0006AFB002807D02868FFF743FB002802D101
:100CD0002868FFF758FB022E03D0032E03D10C2403
:100CE00002E0082400E0042400F090FB0646286897
:100CF0008068204212D000F089FB801B0628F6D3C2
:100D0000286880682042F2D0E86D40F01000E86565
:100D1000286E40F0010028660120F2BD0020F2BDDF
:100D2000230F00080001005038B504460020009051
:100D30002068FFF70AFB002852D1216888686FF30A
:100D40009E10002809D0E06D40F01000E065206E94
:100D500040F001002066012032BD0846FFF7E5FAA9
:100D60002168B1F1A04F02D02B48814201D11D482A
:100D700000E01D48FFF73CFA000210D5214800684A
:100D80002149B0FBF1F1491C01EB410080000090CA
:100D900002E00098401E009000980028F9D100F071
:100DA00035FB054620680168C90719D4FFF7CDFA5D
:100DB000002802D12068FFF7B8FA00F027FB401B9B
:100DC0000328EFD320680068C007EBD4E06D40F043
:100DD0001000E065206E40F001002066012032BD69
:100DE000002032BD000300500007005000050050F5
:100DF00000007F4000000880000021C31000C09068
:100E00000006005018000020400D0300000052C7EB
:100E1000000084CB000040A30001005038B5054617
:100E20002868FFF796FA04462868FFF78EFA00282C
:100E300030D0002C2ED12868816801F00D010129E5
:100E40001ED1FFF77AFA03212868016000F0DEFA6C
:100E5000044628688068C0071CD500F0D7FA001B3C
:100E60000328F6D328688068C007F2D5E86D40F003
:100E70001000E865286E40F001002866012032BDB0
:100E8000E86D40F01000E865286E40F0010028662B
:100E9000012032BD002032BD10B5846AE16D11F031
:100EA000500F2ED1E06D40F40070E06520680168BD
:100EB000090713D5FFF7DAF900281DD02068C068AC
:100EC000800419D4E06D20F48070E065E06DC0040A
:100ED00012D4E06D40F00100E0650DE0C0688007CD
:100EE0000AD4E06D20F48070E065E06DC00403D4A6
:100EF000E06D40F00100E0652046BDE8104000F0E4
:100F00008BBAE16DC90604D52046BDE8104000F05B
:100F100084BA616D496BBDE810400847806A00F0F3
:100F20007DBA806AC16D41F04001C165016E41F03A
:100F30000401016600F071BA18B58BB0002108A851
:100F400001604160816020210022684600F07CFA47
:100F50005A4C4FF0A04020604FF4403060600020B9
:100F6000A060E0602061012060610420A061002099
:100F7000A0830320206204F124000021017081601D
:100F8000C1600175816101772046FFF709FA0028E9
:100F900001D000F0E9FA0020089008A9204600F0EE
:100FA00041FB002801D000F0DFFA45480090062000
:100FB0000190072002907F200390042004900020DD
:100FC000059069462046FFF721FC002801D000F07B
:100FD000CBFA3C4800900C20019069462046FFF770
:100FE00015FC002801D000F0BFFA3748009012200D
:100FF000019069462046FFF709FC002801D000F067
:10100000B3FA0CB010BD30B59BB0044614210022D9
:1010100001A800F019FA5421002206A800F014FAE1
:101020002068B0F1A04F46D14FF4004006904FF039
:101030000050179006A800F0BDFB002801D000F07A
:1010400093FA2248016841F400510160016801F4FB
:10105000005100910099016841F0010101600068B0
:1010600000F00100009000980720019003200290FA
:101070000020039001A94FF0904000F007FD144DAF
:1010800014482860052068600020A860E86080207F
:1010900028614FF4807068614FF48060A86100207F
:1010A000E8612862284600F017F8002801D000F017
:1010B0005BFA6565AC621BB030BD0000200D0120FD
:1010C00002003004040060080800900C4C1002403C
:1010D0008C0D01200800024038B5040001D1012028
:1010E00032BD216804F12405DFF8FC0281420BD2F5
:1010F000DFF8F80241181420B1FBF0F080002862FC
:10110000DFF8EC02E8610AE0DFF8E8024118142099
:10111000B1FBF0F080002862DFF8DC02E861022019
:10112000687021680A686FF30E12A0680243E068D5
:1011300002432069024360690243A0690243E069F7
:101140000243206A02430A60204600F025F9A068A5
:10115000B0F5804F01D1002060602079696A086095
:10116000E96AA86A4160606800280BD0052809D2A6
:10117000204600F02BF90020296B0860A86B696BF2
:10118000486003E0002028636863A8630020A8612A
:10119000012068700020287032BDF8B50446002593
:1011A00004F124063078012801D10220F2BD01208B
:1011B00030707078012831D1022070702846B061FB
:1011C00027683868400840003860204600F0C3F8BF
:1011D0002168F0680028086803D040F00E0008601D
:1011E00007E020F0040008602168086840F00A0069
:1011F0000860706A0168C90303D5016841F4807111
:101200000160306B002803D0016841F480710160F7
:101210002168086840F00100086002E0284630704C
:1012200002252846F2BD10B4002100F124025378B3
:10123000022B03D004209061012123E0046823687D
:1012400023F00E032360546A236823F48073236021
:1012500003681868400840001860012092F82030A8
:1012600003F01F039840D3695860D36A906A4360C3
:10127000106B002806D0036823F480730360936B1F
:10128000506B43600120507000201070084610BC65
:101290007047F0B400F12401CA69126803681C6841
:1012A00091F8205005F01F05042606FA05F73A428A
:1012B00014D0670712D51A68920603D41A6822F070
:1012C00004021A6091F8202002F01F029640CA69B9
:1012D0005660C96800293CD0F0BC0847022606FACF
:1012E00005F73A4218D0A70716D51A68920605D412
:1012F0001A6822F00A021A6001224A7091F820202E
:1013000002F01F029640CA69566000220A7089687E
:1013100000291ED0F0BC0847082606FA05F52A4227
:1013200017D0220715D51A6822F00E021A60012282
:1013300091F8203003F01F039A40CB695A600122D4
:101340008A614A7000220A700969002901D0F0BC44
:101350000847F0BC704730B4056DC46C6560446DDF
:10136000002C02D0C56D846D6560012490F8445056
:1013700005F01F05AC40056C6C6004686360046890
:101380008368102B03D1A2600068C16002E0A160F5
:101390000068C26030BC70470168184A124B99421D
:1013A00000D3203201F0FF0108391423B1FBF3F11F
:1013B000436C9B0812EB83028264114AC2640122CF
:1013C00001F01F0102FA01F10165704702790D4930
:1013D00001EB820141650C4981650121521E02F039
:1013E0001F029140C165704708040240F8FFFDBF2D
:1013F00000000240F8FBFDBF00040240000802406C
:1014000080080240FC080240400902400148006890
:10141000704700BF0C0000207047704770470EE017
:1014200002684368024408305FEAC37C44BF4B440F
:101430005B1E52F804CB43F804CB091FF9D150F8D6
:10144000041B0029ECD1704762F30F2262F31F42A4
:10145000401810F0030308D0C91A1FD3DB0748BF98
:1014600000F8012D28BF20F8022D130030B41446D7
:101470001546103928BF20E93C00FAD8490728BF93
:1014800020E90C0048BF40F8042D890028BF20F84F
:10149000022D48BF00F8012D30BC7047C91818BF95
:1014A00000F8012DCB0728BF00F8012D7047000080
:1014B00080B500F0E9FB00F013F800F0F5FB00F058
:1014C0009BFCFFF739FD00F0EFFC00F0B5FC00F0ED
:1014D00023FD00F0D1FD00F081FE00F0E1FDFEE70C
:1014E00000B593B03821002205A8FFF7ADFF142105
:1014F00000226846FFF7A8FF002000F0F3FE01205D
:1015000005904FF48030069002200C9003200D903F
:1015100002200E9055200F900220109011901290F2
:1015200005A800F055FF002801D000F01DF80F209D
:101530000090032001900020029003900490042169
:10154000684601F02EF9002801D000F00DF813B024
:1015500000BD01680348814201D101F08FBA704794
:10156000000000000048014072B6FEE7806800F00D
:10157000010070478368DFF8A420134001F0804128
:10158000194341F00041816070478068C00F704787
:101590008068800800F001007047F8B504460F46E7
:1015A0000020009004F158052878012801D102207C
:1015B000F2BD012028702046FFF730FC0600686865
:1015C00025D120F4885040F0020068603946206838
:1015D000FFF7D0FF2068FFF7D8FF002811D0009850
:1015E000401C00900099DFF838008142F2D368680F
:1015F00020F0020040F010006860002028700120F8
:10160000F2BD0121686861F30100686002E040F00A
:1016100010006860002028703046F2BDC0FFFF3F18
:1016200002DE04002DE9F8419BB080460F460026FB
:1016300008F158052878012801D10220A8E00120EE
:101640002870304617901890D8F80010B1F1A04FCC
:1016500002D15348009007E05448814202D14F48DC
:10166000009001E0304600900098002807D168689B
:1016700040F02000686030462870012088E0FFF7C5
:1016800087FF0446D8F80000FFF782FF044377D1B4
:10169000D8F800204349B2F1A04F02D0404882421E
:1016A00001D10C4600E03C4C386800283AD0A268D2
:1016B00022F460427868024398F8380042EA4032E7
:1016C000A260D8F80020B2F1A04F02D03448824284
:1016D00001D1084600E0304888420AD14FF0A040CE
:1016E000FFF744FF80462E48FFF740FF40EA08001E
:1016F0000DE02E48FFF73AFF80462848FFF736FFF7
:1017000040EA08082848FFF731FF40EA08000028AF
:101710003BD1A1682648014038680143B8680143BD
:10172000A16032E0A06820F46040A060D8F80020FA
:10173000B2F1A04F02D01A48824201D1084600E01F
:101740001548884209D14FF0A040FFF70FFF074628
:101750001348FFF70BFF38430BE01448FFF706FF71
:1017600007460E48FFF702FF07430F48FFF7FEFE4C
:101770003843002809D1A1680D480140A16004E068
:10178000686840F02000686001260020287030461C
:101790001CB0BDE8F08100000007005000050050BB
:1017A00000010050000300500006005000040050EB
:1017B000E0F0FFFF2DE9FC47074600242546DFF84F
:1017C000C0623868000369D5A046F06CC0000AD436
:1017D000F06C40F08050F064F06C00F080500090AD
:1017E00000984FF00108DFF89CA2DAF8000040F4FE
:1017F0008070CAF80000FFF709FE8146DAF80000A1
:10180000C00506D4FFF702FEA0EB09000328F5D3BC
:10181000032420003AD1DFF87092D9F8000010F4C8
:10182000407014D0396D884211D0D9F8000020F4EE
:101830004070D9F8001041F48031C9F80010D9F88F
:10184000001021F48031C9F80010C9F80000C00769
:101850000FD5FFF7DBFD8246D9F80000800708D4DA
:10186000FFF7D4FDA0EB0A0041F289318842F3D39F
:101870000324200008D1D9F8001021F44071386DFC
:101880000143C9F8001002E0254600E02546B8F102
:10189000010F03D1F06C20F08050F0643878C0075D
:1018A00005D5F16F8908786850EA8101F1673878C9
:1018B000800705D5F16F21F00C01B8680143F1678D
:1018C0003878400705D5F16F21F03001F868014301
:1018D000F1673878000705D5F16F21F0C00138694C
:1018E0000143F1673878C00605D5F16F21F44071E6
:1018F00078690143F1673878800605D5F16F21F4E6
:101900004061B8690143F1673878400605D5F16F49
:1019100021F44051F8690143F1673878000605D594
:10192000F16F21F44041386A0143F1673868C0051E
:1019300005D5F16F21F44031786A0143F1673868C9
:10194000800307D5DFF84021D1688908B86A50EADA
:101950008101D1603868800505D5F16F21F44021FF
:10196000F86A0143F167386840050DD5F16F21F43D
:101970004011386B0143F167386BB0F5801F03D11C
:10198000306840F480103060386800050DD5F16F84
:1019900021F44001786B0143F167786BB0F5800F5B
:1019A00003D1306840F4801030603868C0040DD531
:1019B000F16F21F04071B86B0143F167B86BB0F182
:1019C000807F03D1306840F4801030603868800434
:1019D0000DD5F16F21F04061F86B0143F167F86BB1
:1019E000B0F1006F03D1306840F480103060386887
:1019F00040040DD5F16F21F04061386C0143F1676F
:101A0000386CB0F1006F03D1306840F48010306062
:101A1000386800040DD5F16F21F04051786C014316
:101A2000F167786CB0F1805F03D1306840F48030AA
:101A300030603868C0030DD5F16F21F04041B86CBB
:101A40000143F167B86CB0F1804F03D1306840F4C6
:101A500080303060386840030FD5DFF82C20D16823
:101A600021F44011F86C0143D160F86CB0F5001F0F
:101A700003D1306840F4801030602846BDE8F68716
:101A80000C1002400070004090100240F8B5024671
:101A90000B4600242DE04FF0060C05E0DFF8C4C132
:101AA0006245F8D14FF0050C0CFA06FC4CEA070C25
:101AB00040F825C06C488668CD432E405F68FF0221
:101AC00000D50E438660C6682E405F68BF0200D511
:101AD0000E43C66046682E405F68BF0300D50E43C4
:101AE000466006682E405D68ED0300D50E43066033
:101AF000641C19680846E04000F093800126A64067
:101B00003140F5D0600003258540ED435F6807F064
:101B1000030CBCF1010F03D007F00307022F11D112
:101B2000D2F808C005EA0C0CDF68874047EA0C0CC5
:101B3000C2F808C05768B7435E68C6F30016A640EF
:101B4000374357601E7906F00306032E05D0D76889
:101B50002F409E6886403743D7601E7906F0030603
:101B6000022E16D12646F60802EB8606D6F820C0CD
:101B7000A70007F01C074FF00F0E0EFA07FE2CEA25
:101B80000E0CD3F810E00EFA07F747EA0C0CC6F873
:101B900020C016682E401D7905F0030505FA00F0F7
:101BA00006431660586810F4403FA1D02F4D2868B6
:101BB00040F001002860286800F0010000900098C3
:101BC0002546AD082A4850F82570A60006F00C06F8
:101BD0004FF00F0C0CFA06FC27EA0C07B2F1904FFD
:101BE00002D14FF0000C5FE7DFF888C0624502D1F8
:101BF0004FF0010C58E7DFF880C0624502D14FF08A
:101C0000020C51E7DFF874C0624502D14FF0030CBB
:101C10004AE7DFF86CC062457FF440AF4FF0040C38
:101C200042E7F1BD006901400846401E8041C043C3
:101C3000C00F7047002A01D08161704781627047F0
:101C4000436901EA0302994341EA02418161704715
:101C500003460C490A681A4202D00B6000F016BF16
:101C6000704700000014004800040140601002406A
:101C7000080001400004004800080048000C00482B
:101C8000001000481404014010B50024032000F0A7
:101C900042FF052000F058FF002801D0012401E098
:101CA00000F098FF204610BD70B586B014210022C8
:101CB0006846FFF7C9FB4D48016841F00401016027
:101CC000016801F0040105910599016841F02001C6
:101CD0000160016801F0200105910599016841F05A
:101CE00001010160016801F0010105910599016898
:101CF00041F002010160006800F0020005900598C3
:101D00003B4E00224FF400513046FFF793FF394D10
:101D1000002245F604012846FFF78CFF00224FF40D
:101D200000614FF09040FFF785FF4FF4005400949E
:101D30001120019000200290039069463046FFF781
:101D4000A5FE382000904FF444100190002002902E
:101D500069464FF09040FFF799FE44F2040000906E
:101D6000012001900020029002200390694628463D
:101D7000FFF78CFE4FF4C05000900120019000202E
:101D80000290039069462846FFF780FE00940020E9
:101D90000190029069462846FFF778FE4FF40060F4
:101DA00000900120019000200290022003906946DB
:101DB0004FF09040FFF76AFE00220521092000F055
:101DC000ABFE092000F0B7FE002205210A2000F03A
:101DD000A3FE0A2000F0AFFE00220521172000F02C
:101DE0009BFE172000F0A7FE06B070BD4C1002400D
:101DF000000800480004004880B50E48016841F022
:101E000004010160016801F004010091009901687A
:101E100041F001010160006800F0010000900098AD
:101E2000002205210B2000F077FE0B20BDE80240C8
:101E300000F081BE4810024018B587B01021002282
:101E400003A8FFF701FB0021684601604160816043
:101E5000724C73482060A92060600846A06042F27E
:101E60002830E06008462061A061204600F0D2FEE4
:101E7000002801D0FFF778FB4FF48050039003A9AE
:101E8000204601F02CF8002801D0FFF76DFB002060
:101E9000009002906946204601F06CF9002801D0BC
:101EA000FFF762FB08B010BD18B587B01021002203
:101EB00003A8FFF7C9FA002168460160416081600C
:101EC000584C59482060A92060600846A06042F242
:101ED0002830E06008462061A061204600F09AFEAC
:101EE000002801D0FFF740FB4FF48050039003A976
:101EF000204600F0F4FF002801D0FFF735FB00205A
:101F0000009002906946204601F034F9002801D083
:101F1000FFF72AFB08B010BD18B587B010210022CA
:101F200003A8FFF791FA00216846016041608160D3
:101F30003E4C3F482060A92060600846A06042F205
:101F40002830E060084620616061A061204600F012
:101F500061FE002801D0FFF707FB4FF4805003908B
:101F600003A9204600F0BBFF002801D0FFF7FCFAD0
:101F700000200090019002906946204601F0FAF896
:101F8000002801D0FFF7F0FA08B010BD80B5006856
:101F90002349884213D12749086840F002000860AD
:101FA000086800F0020000900098002205211D2022
:101FB00000F0B2FD1D20BDE8024000F0BCBD1A4992
:101FC000884213D11B49086840F004000860086883
:101FD00000F0040000900098002205211E2000F06F
:101FE0009BFD1E20BDE8024000F0A5BD10498842BF
:101FF00013D11049886840F400508860886800F464
:10200000005000900098002205212C2000F084FD53
:102010002C20BDE8024000F08EBD01BD380E01202D
:1020200000040040840E012000080040D00E012072
:1020300000340140581002400A01010003D4DFF8C7
:102040008C0142547047DFF8880101F00F01084409
:1020500000F8042C704780B5DFF87801006801F0C3
:10206000A1FC012803D0BDE8014001F0C5BD01BDC0
:1020700000216FF00400DFE7EFF30580002802D0B5
:102080006FF005007047DFF850110868002803D191
:1020900001200860002070474FF0FF3070470000BB
:1020A00010B5EFF30580002802D06FF0050010BDD9
:1020B000DFF824412068012807D1FFF7D9FF02206B
:1020C000206001F0E9F9002010BD4FF0FF3010BD95
:1020D000EFF30580002801D001F08DBA01F087BA36
:1020E000F8B584B000230393EFF30583002B5BD195
:1020F000030059D08026182700254FF0FF3C002A06
:1021000032D01368002B00D01D469369002B00D0FD
:102110001F46002F04D0392F02D21379DB0701D5D7
:10212000002042E05369002B01D01E46B608946897
:10213000002C0ED0D2F80CE0BEF15C0F09D3D2F81F
:1021400010E0BEF1000F04D0002B02D04FF0010CC4
:102150000BE0002C09D1D368002B06D11369002BAA
:1021600003D14FF0000C00E0AC46BCF1010F0BD1E5
:10217000936802931269019200970B4632462946F2
:1021800001F04EF803900FE0BCF1000F0CD103AA50
:10219000019200970B46324692B2294601F082F82E
:1021A000012801D000200390039805B0F0BD10B5C0
:1021B000EFF30581002902D06FF0050404E000244C
:1021C000002801D001F041F9204610BD00E400E0F4
:1021D00018ED00E010E000E0640F012080B53B4AFC
:1021E00000210FF20D00FFF77BFF3949086001BDA8
:1021F000FEB50220FFF7DBFF364C7F212046FFF7BC
:10220000CCF9032269462046FEF710FA0220FFF7B8
:10221000CEFF2046FEF7E6F92046FEF7B7FABDF8F6
:102220000240FFF755FF06462B4D2C4F01E00320DF
:1022300028702878002804D001280FD0032821D046
:1022400031E04FF400513846FFF7ECFC00282AD16A
:10225000FFF73EFF06460120287024E068880A3018
:1022600068804FF400513846FFF7DCFC01281AD192
:10227000FFF72EFF801B40F6B8318842D7D20020EE
:10228000287010E001224FF480513846FFF7D2FC4D
:102290002046FFF78CFF00224FF480513846FFF7AD
:1022A000C9FC002028700120FFF781FF6888401CCE
:1022B000688080B2B0F5FA7FBBDB002068804FF405
:1022C00000510748FFF7BCFCB3E700005C4E000874
:1022D000600F0120200D01205C0F01200004004848
:1022E00000080048DFF8D41000282AD1DFF8D00019
:1022F0000A6802F4C062B2F5806F1DD1026822F450
:10230000807202600122086862F34A200860DFF8E8
:10231000B400026832204243DFF8AC00B2FBF0F0B8
:10232000401C00E0401E4A69520501D50028F9D141
:10233000486940052DD438E0016821F480710160BE
:1023400033E0B0F5007F2BD1DFF874000A6802F4A7
:10235000C062B2F5806F1ED1026842F480720260E2
:102360000122086862F34A200860DFF8580002681A
:1023700032204243DFF85000B2FBF0F0401C00E096
:10238000401E4A69520501D50028F9D14869400527
:102390000BD503207047016841F48071016004E0AF
:1023A0000222086862F34A2008600020704707494B
:1023B000086840F4804008607047000000700040EA
:1023C000807000401800002040420F00087000405C
:1023D0002DE9F843040000F0E281DFF8645620782C
:1023E000C00712D5A96801F00C01E86800F00300ED
:1023F0000C2901D1032801D0082945D12868800380
:1024000003D56068002800F0CA812078800721D5B4
:10241000A96801F00C01E86800F003000C2901D163
:10242000022801D0042966D12868400503D5E06858
:10243000002800F0B481686820F0FE40216940EA7D
:1024400001606860DFF80406006800F07DFB00288A
:1024500040F0A581DFF8F8652078000740F184801E
:1024600060690028706870D040F001007060FEF76D
:10247000CDFF07467068800776D4FEF7C7FFC01B04
:102480000328F7D303205BE16068B0F5803F04D1F7
:10249000286840F48030286012E0B0F5A02F28684A
:1024A00007D140F480202860286840F480302860FC
:1024B00006E020F480302860286820F4802028601E
:1024C000606800280BD0FEF7A1FF0646286880034D
:1024D0009BD4FEF79BFF801B6528F7D3D2E7FEF75E
:1024E00095FF0646286880038FD5FEF78FFF801B77
:1024F0006528F7D3C6E7E0680028286816D040F4BE
:1025000080702860FEF782FF06462868400505D4E3
:10251000FEF77CFF801B0328F7D3B3E7696821F03F
:10252000FE41206941EA0061696093E720F4807010
:102530002860FEF76BFF0646286840058AD5FEF73F
:1025400065FF801B0328F7D39CE7400840007060BC
:10255000FEF75CFF07467068800705D5FEF756FF5B
:10256000C01B0328F7D38DE72078400768D50027E4
:10257000A86DC00009D4A86D40F08050A865A86D72
:1025800000F08050009000980127DFF8C884D8F848
:102590000000C00513D4D8F8000040F48070C8F8DB
:1025A0000000FEF733FF8146D8F80000C00506D4CE
:1025B000FEF72CFFA0EB09000328F5D362E7A06823
:1025C000012804D1306840F00100306011E0052896
:1025D000306807D140F004003060306840F00100FE
:1025E000306006E0400840003060306820F00400B1
:1025F0003060A06800280ED0FEF708FF80463068E3
:10260000800717D4FEF702FFA0EB080041F28931E2
:102610008842F4D336E7FEF7F9FE8046306880073B
:1026200008D5FEF7F3FEA0EB080041F2893188429D
:10263000F4D327E7012F03D1A86D20F08050A865BF
:102640002078800621D5A0690028B0680ED040F01F
:102650000100B060FEF7DAFE0746B068800714D4C8
:10266000FEF7D4FEC01B0328F7D30BE74008400059
:10267000B060FEF7CBFE0746B068800705D5FEF7D1
:10268000C5FEC01B0328F7D3FCE6E069002856D03E
:10269000A96801F00C010C2954D00228286820F008
:1026A000807028603AD1FEF7B1FE064628688001A6
:1026B00005D5FEF7ABFE801B0328F7D3E2E6E968F9
:1026C000DFF894030140206A0143606A401E41EA3A
:1026D0000011A06A41EA0021206B4008401E41EA37
:1026E0004051606B4008401E41EA4061E06A41EAA7
:1026F000C061E960286840F080702860E86840F0B8
:102700008070E860FEF782FE04462868800116D4D7
:10271000FEF77CFE001B0328F7D3B3E6FEF776FE38
:1027200004462868800105D5FEF770FE001B0328CB
:10273000F7D3A7E6E968DFF824030140E960002049
:10274000BDE8F28301282AD0E86800F00302216A7C
:102750008A4224D100F0F0021032616AB2EB011F0C
:102760001DD100F4FE42A16AB2EB012F17D100F097
:102770007842E16AB2EBC16F11D100F4C00202F5F8
:102780000012216B4908B2EB415F08D100F0C06034
:1027900000F10070616B4908B0EB416FCFD00120B0
:1027A000CEE72DE9F84304460F464FF00008002C11
:1027B00061D0DFF8AC52286800F00F00B84209D2AF
:1027C0002868000957EA00102860286800F00F0008
:1027D000B84250D1DFF868622078C0074DD56068F4
:1027E00003281AD13068800145D500F007F9DFF8D9
:1027F0007412884223D3B06810F0F00F05D020780F
:1028000080071CD5A068002819D10821B06861F3A1
:102810000710B0604FF0800811E00228306828D11E
:10282000800328D500F08AF8DFF83812884206D3F2
:102830000821B06861F30710B0604FF08008B168FC
:102840008908606850EA8101B160FEF7DFFD8146CA
:10285000B16801F00C016068B1EB800F0DD0FEF79C
:10286000D5FDA0EB090041F289318842F0D3032065
:1028700062E04005D6D401205EE02068810714D5CF
:10288000400703D5B06840F4E060B06020780007EE
:1028900004D50721B06861F30D20B060B16821F064
:1028A000F001A0680143B16006E0B8F1800F03D1E8
:1028B000B06820F0F000B060286800F00F00874298
:1028C00015D22868000957EA00102860FEF79EFD1F
:1028D0008046286800F00F00B84208D0FEF796FD49
:1028E000A0EB080041F289318842F2D3BFE720789B
:1028F000400705D5B16821F4E061E0680143B160AB
:102900002078000706D5B06820F46050216940EABD
:10291000C100B06000F012F85349B268C2F303126C
:10292000895C01F01F01C8404749086047480068BA
:10293000BDE8F24300F008B9BDE8F2834B480168F6
:1029400001F00C01042901D13E487047016801F0F3
:102950000C01082901D146487047016801F00C01BB
:102960000C291FD1426802F003024168C1F3031130
:10297000491C032A07D13E4AB2FBF1F24168C1F378
:102980000621514306E02F4AB2FBF1F24168C1F340
:10299000062151434068C0F34160401C4000B1FB38
:1029A000F0F070470020704727480068704780B5F6
:1029B000FFF7FAFF2F492D4A1268C2F3C222895C41
:1029C00001F01F01C84002BD0F220260274A1368B0
:1029D00003F003034360136803F0F003836013689C
:1029E00003F4E063C3601268D20802F4E06202619B
:1029F0001B48006800F00F00086070471E4802681E
:102A000002F003020168C1F30311491C032A07D134
:102A1000174AB2FBF1F20168C1F30621514306E007
:102A2000084AB2FBF1F20168C1F306215143006884
:102A3000C0F34160401C4000B1FBF0F07047000063
:102A4000001002400024F4001800002010000020B4
:102A500090100240007000400C809F01FCFFEEFED1
:102A60000020024001B4C404D84E000808100240FF
:102A700000127A00884F00080C100240024A1168C8
:102A800090684118116070470C00002070470000EA
:102A900029490A6860F30A2240F2FA5060F31F42A3
:102AA0000A60704724480068C0F3022070470000A5
:102AB000010007D4012200F01F018A401F4940098C
:102AC00041F8202070470A01010002D41C484254FA
:102AD00070471C4801F00F01084400F8042C7047AF
:102AE00010B400F00700C0F10703052B00D3042346
:102AF000041D072C01D2002000E0C01E012404FAAE
:102B000003F35B1E1940814004FA00F0401E1040A0
:102B1000084310BC7047BBE770B506460C46154627
:102B2000FFF7C0FF2A462146FFF7DAFF014630468D
:102B3000BDE87040C7E7BBE70CED00E000E100E056
:102B400000E400E018ED00E078B587B004461C49C9
:102B5000086840F480200860086800F48020009035
:102B6000009801A902A8FFF72FFFFFF720FF154DDE
:102B70001549296040F2E731E9601449B0FBF1F0F2
:102B8000401E686000202861A860284600F042F8D6
:102B9000060012D1284600F061F806000DD11A2077
:102BA000FFF7C9FF102C07D2002221461A20FFF799
:102BB000B3FF0748046000E00126304608B070BD4E
:102BC00060100240EC0D01200048014040420F001F
:102BD0001000002080B50E48816841F0010181603D
:102BE000816801F0010100910099016841F0805174
:102BF0000160006800F080500090009800220F21D2
:102C00006FF00100FFF788FFBDE80140FFF7CFBB81
:102C10005810024038B5040001D1012032BD04F142
:102C20003C056878002804D1002028702046FFF772
:102C3000ADF902206870211D206800F0D1F9012053
:102C40002873A870E87028716871A871E8712872FB
:102C50006872A872E8726870002032BD90F83D106A
:102C6000012901D001207047022180F83D1002683F
:102C7000D16841F00101D1600068DFF89810884206
:102C80001AD0B0F1804F17D0DFF88C10884213D0E3
:102C9000DFF8881088420FD0DFF8841088420BD00C
:102CA000DFF88010884207D0DFF87C10884203D01C
:102CB000DFF8781088420DD18168DFF874200A406F
:102CC000062A0BD0B2F5803F08D0016841F001011F
:102CD000016003E0016841F00101016000207047DC
:102CE0000268D16849084900D16001680B6A41F265
:102CF0001112134208D10B6A44F24442134203D129
:102D00000A68520852000A60012180F83D10002034
:102D100070470000002C0140000400400008004003
:102D2000000C0040003401400040014000500140D0
:102D30000700010070B504462068C5680669B10740
:102D400016D5A90714D56FF0020101610120207783
:102D50002068806910F0030F204602D000F094FF35
:102D600004E000F092FF204600F090FF0020207762
:102D7000700717D5680715D56FF004012068016149
:102D8000022020772068806910F4407F204602D01E
:102D900000F07AFF04E000F078FF204600F076FFB4
:102DA00000202077300717D5280715D56FF00800C9
:102DB00021680861042020772068C06910F0030FA3
:102DC000204602D000F060FF04E000F05EFF2046E5
:102DD00000F05CFF00202077F00617D5E80615D537
:102DE0006FF0100120680161082020772068C06919
:102DF00010F4407F204602D000F046FF04E000F0CF
:102E000044FF204600F042FF0020207706F001003A
:102E100005F00101084206D06FF001012068016150
:102E20002046FEF796FB16F4025F08D0280606D56A
:102E30006FF4025120680161204600F028FFF00580
:102E400008D5280606D56FF48071206801612046F8
:102E500000F01EFF700608D5680606D56FF0400129
:102E600020680161204600F014FFB00608D5A806CE
:102E700006D56FF0200120680161204600F00AFFAE
:102E8000F00208D5E80206D56FF4801120680161D0
:102E9000204600F000FFB00208D5A80206D56FF466
:102EA000001120680161204600F0F6FE700208D58E
:102EB000680206D56FF4800021680861204600F0A2
:102EC000ECFE30020AD5280208D56FF40000216814
:102ED00008612046BDE8704000F0E0BE70BD70B5EE
:102EE0000446002504F13C063078012801D1022077
:102EF00070BD012030700220707022689368DFF886
:102F00004C0203409360086803005CD0103B5AD029
:102F1000103B58D0103B56D0103B4AD0103B34D019
:102F2000103B3CD0103B18D04FF479629B1A50D024
:102F30004FF480529B1A1CD04FF47E229B1A42D031
:102F4000103B40D0103B3ED0103B3CD0103B3AD021
:102F5000103B38D0203B36D03AE0CB684A688968CD
:102F6000206800F0FBF82068816841F077018160FB
:102F70002FE0CB684A688968206800F0EFF8216884
:102F8000886840F48040886023E0CA684968206807
:102F900000F0AEF85021206800F0CFF819E0CA68C0
:102FA0004968206800F0B6F86021206800F0C5F894
:102FB0000FE0CA684968206800F09AF8402120684C
:102FC00000F0BBF805E00146206800F0B6F800E02C
:102FD00001250120707000203070284670BD00006F
:102FE00010B40468DFF8EC30984216D0B0F1804F8E
:102FF00013D0DFF8E42090420FD0DFF85421904244
:103000000BD0DFF85021904207D0DFF8D02090425B
:1030100003D0DFF8D820904204D124F07004224677
:103020004C681443984222D0B0F1804F1FD0DFF893
:10303000A82090421BD0DFF81821904217D0DFF86B
:103040001421904213D0DFF8942090420FD0DFF883
:10305000902090420BD0DFF88C20904207D0DFF810
:103060008820904203D0DFF88420904204D124F4D9
:1030700040742246CC68144324F080044A69144307
:1030800004608A68C2620A688262984213D0DFF8DC
:103090004C2090420FD0DFF8482090420BD0DFF850
:1030A0004420904207D0DFF84020904203D0DFF860
:1030B0003C20904201D1096901630121416101690C
:1030C000C90703D5016949084900016110BC70476F
:1030D00000000000002C01400004004000340140CA
:1030E00000400140004401400048014000500140C0
:1030F00010B4036A046A640864000462846924F0FA
:10310000F00444EA0214846123F00A0319430162C3
:1031100010BC704710B4036A046A24F010040462FF
:10312000846924F4704444EA0234846123F0A003E7
:1031300043EA0113036210BC70478368064A1340D8
:10314000194341F007018160704700008800CEFFFD
:1031500000080040000C00408FFFCFFF10B48468CF
:1031600024F47F442143114341EA0321816010BCD0
:1031700070470000F0B400F13C031A78012A01D135
:1031800002203BE001221A7002225A7005686F6823
:10319000AC681B4EB54205D01D4A954202D01E4A6E
:1031A000954204D127F470073A464F681743DFF879
:1031B0006C2017400A6817436F600268B24214D04F
:1031C000B2F1804F11D00F4882420ED00E48824299
:1031D0000BD00E48824208D00D48824205D00D48DF
:1031E000824202D00C48824204D124F080048868D4
:1031F000044394600120587000201870F0BC7047A0
:10320000002C01400004004000080040000C004079
:103210000034014000400140005001408FFFFFFD9D
:1032200078B585B005460B98002807D1502080F36B
:103230001188BFF34F8FBFF36F8FFEE70C9C002CFC
:1032400007D1502080F31188BFF34F8FBFF36F8FEA
:10325000FEE75C260096009E5C2E07D0502080F38F
:103260001188BFF34F8FBFF36F8FFEE7009E002CD6
:1032700013D0002811D02063022084F859000020C8
:103280000390029404A801900A980090284600F048
:103290003DF8204600F097F801E0002004900498E3
:1032A00006B070BD2DE9F84384B006460F4690463F
:1032B00099464FEA880000F0F3FC05000AD05C2034
:1032C00000F0EEFC040001D0256304E0284600F085
:1032D0005DFD00E00024002C13D0002084F859008C
:1032E000039002940D9801900C9800904B46424632
:1032F0003946304600F00AF8204600F064F8012014
:1033000001E04FF0FF3005B0BDE8F0832DE9F04754
:1033100080460C4617461D460A9EA522B900306B12
:1033200000F0BCFD306B00EB8700071FFF08FF00BB
:1033300017F0070007D0502080F31188BFF34F8F9C
:10334000BFF36F8FFEE706F13409002C0ED0014663
:1033500000E0491C102905D2605C09F80100605C9E
:103360000028F6D1002089F80F0001E089F800005C
:10337000DDF820A0BAF1370F01D94FF0370A099CC8
:10338000C6F82CA0C9F818A0C9F81C00301D00F020
:10339000AFFD06F1180000F0ABFD3661CAF1380A46
:1033A000C6F818A076620020C9F8200086F85800F8
:1033B0002A464146384600F071FB3060002C00D0B0
:1033C0002660BDE8F08738B5044600F0E9FBDFF879
:1033D0006855E86C401CE864A86A002806D1AC6215
:1033E000E86C01280BD100F065FA08E0A86D002810
:1033F00005D1E06AA96AC96A884200D3AC62A86EA6
:10340000401CA8666064E06A696D814200D268650C
:10341000211DDFF8282500EB800302EB830000F07C
:103420006AFD00F0D6FBA86D00280DD0A86AC06A1E
:10343000E16A884208D24FF08051DFF8040501604C
:10344000BFF34F8FBFF36F8F31BD10B5044600201F
:10345000002C14D0DFF8E004406F002807D0502083
:1034600080F31188BFF34F8FBFF36F8FFEE700F03B
:1034700059F80021204600F0E1FA00F059F8002840
:1034800008D14FF08051DFF8B8040160BFF34F8FCF
:10349000BFF36F8F10BD000010B586B000200590FF
:1034A000049003AA04A905A800F05EFDDFF8884493
:1034B0000598029004980190002000900346039A1A
:1034C00016A10FF2D130FFF7ABFE2067002801D024
:1034D000012000E00020012801D100F04FFD01286B
:1034E00011D1502080F31188BFF34F8FBFF36F8F3E
:1034F0004FF0FF30E0660120A0650020206500F05D
:10350000EFFA06B010BD10F1010FFAD1502080F390
:103510001188BFF34F8FBFF36F8FFEE749444C45CF
:1035200000000000DFF81014486F401C4867704727
:1035300070B500242546DFF80064706F002807D1BD
:10354000502080F31188BFF34F8FBFF36F8FFEE7DA
:1035500000F026FB706F401E7067706F002842D12C
:10356000F06C00281ED13EE0F068C46804F1180039
:1035700000F0E7FC201D00F0E4FCE06A716D814280
:1035800000D27065211DDFF8B42300EB800302EB4D
:10359000830000F0B0FCE06AB16AC96A884201D3D6
:1035A0000120306630680028DED1002C01D000F008
:1035B000E9F9F46D002C09D000F024F8002801D0BE
:1035C00001203066641EF7D12846F065306E002871
:1035D00009D001254FF08051DFF864030160BFF38B
:1035E0004F8FBFF36F8F00F0F4FA284670BDDFF8FD
:1035F0004803006D704780B500F012FBDFF8380318
:10360000006D02BDF8B50025DFF82C63706F00284F
:1036100059D1346D641C346514D1F06A00680028F7
:1036200007D0502080F31188BFF34F8FBFF36F8F07
:10363000FEE7F16A306BF0623163706E401C7066B9
:1036400000F0A0F9F06E84422BD323E0F06AC0684A
:10365000C7687868844234D3381D00F072FCB86AB9
:10366000002803D007F1180000F06BFCF86A716DB8
:10367000814200D27065391DDFF8C02200EB800363
:1036800002EB830000F037FCF86AB16AC96A88422D
:1036900000D30125F06A00680028D7D14FF0FF3031
:1036A000F066B16ADFF89402CA6A02EB820189000F
:1036B0004058022800D30125306E002806D001258D
:1036C00004E0F066EDE7F06D401CF0652846F2BDC1
:1036D00010B4DFF86422506F002802D00120106679
:1036E00024E000201066506DDFF8A83300E0401E93
:1036F00000EB80018C001959002909D10028F6D16E
:10370000502080F31188BFF34F8FBFF36F8FFEE718
:1037100019194B685C684C6001F108039C4201D1A7
:1037200063684B604968C9689162506510BC704716
:1037300010B50C46002807D1502080F31188BFF344
:103740004F8FBFF36F8FFEE77B49896A183100F016
:10375000DEFB01212046BDE8104000F06FB938B50E
:103760000D461446002807D1502080F31188BFF37E
:103770004F8FBFF36F8FFEE76F49896A183100F0F2
:10378000BAFB002C01D04FF0FF3521462846BDE89A
:10379000344000F053B938B5C068C468002C07D174
:1037A000502080F31188BFF34F8FBFF36F8FFEE778
:1037B00004F1180000F0C5FB5F4D686F002811D1BF
:1037C000201D00F0BEFBE06A696D814200D2686591
:1037D000211DDFF8C02200EB800302EB830000F024
:1037E0008AFB04E004F11801284600F084FBA86A73
:1037F000C06AE16A884203D201200146296632BDCF
:10380000002032BDDFF89022516E0160116D4160E1
:103810007047F8B504460D46002C07D1502080F3C0
:103820001188BFF34F8FBFF36F8FFEE7002D07D1D5
:10383000502080F31188BFF34F8FBFF36F8FFEE7E7
:1038400000F0AEF9DFF85062306D6168421A2B6803
:1038500013F1010F01D1002413E0776E2668B742FF
:1038600003D0884201D301240BE09A4206D29A1A6F
:103870002A602046FFF7C6FF002402E000202860EF
:10388000012400F0A6F92046F2BD0121DFF808026C
:103890000166704780B500F034F8284800680228B7
:1038A000F9D34FF0805126480160BFF34F8FBFF32B
:1038B0006F8FF0E738B5002407E0204804EB84015F
:1038C00000EB810000F007FB641C382CF5D31A4C88
:1038D00004F1780000F0FFFA04F18C05284600F0AE
:1038E000FAFA204600F0F7FA04F1140000F0F3FAB7
:1038F00004F1380000F0EFFA04F17800E06225638B
:1039000031BD38B5DFF8904111E000F049F9206A87
:10391000C568281D00F015FBE06C401EE064606B7C
:10392000401E606300F055F9284600F00BF8606B0C
:103930000028EAD131BD0000800C012040000120A8
:1039400004ED00E010B5044694F85900002808D1B1
:10395000206B00F01BFA2046BDE8104000F016BABC
:1039600010BD012804D12046BDE8104000F00EBA79
:103970000228F5D0502080F31188BFF34F8FBFF39A
:103980006F8FFEE7DFF81011C86A0068002803D1C6
:103990004FF0FF30C8667047C86AC068C0684068AA
:1039A000C8667047DFF8F010886D002801D101204B
:1039B0007047486F002801D10220704700207047EF
:1039C00038B504460021002C36D0DFF8CC50A86A68
:1039D000844207D0502080F31188BFF34F8FBFF38C
:1039E0006F8FFEE7206D002807D1502080F31188EB
:1039F000BFF34F8FBFF36F8FFEE7401E2065E36A72
:103A0000E26C934218D0002816D1201D00F099FADC
:103A1000E06CE062C0F13800A061E06A696D81424B
:103A200000D26865211DDFF86C2000EB800302EBFB
:103A3000830000F060FA0121084632BDF8B5054662
:103A40000C46154E376DB06A001D00F07AFA15F17C
:103A5000010F09D1002C07D0B06A011D06F1380012
:103A6000BDE8F44000F047BAED19B06A4560BD42C8
:103A7000B06A05D2011D306BBDE8F44000F047BAD2
:103A8000011DF06A00F043FAF06E854200D2F5663F
:103A9000F1BD000040000120800C012010B4A0F115
:103AA00020034FF08074DC614908490099610FF2EE
:103AB000150159611A606FF0020140F8241D203889
:103AC00010BC704750206749496811F1010F80F31D
:103AD0001188BFF34F8FBFF36F8F00D0FEE7FEE773
:103AE0001CB56148026861498A4207D1502080F3C1
:103AF0001188BFF34F8FBFF36F8FFEE702685C49F9
:103B00008A4207D1502080F31188BFF34F8FBFF353
:103B10006F8FFEE757490A780192FF220A700A78F0
:103B20008DF800204F4C9DF8002002F050022270CA
:103B30000722A26006E0521EA2609DF800205200FB
:103B40008DF80020A2689DF800301B06F3D4534284
:103B500013F1030F07D0502080F31188BFF34F8F6C
:103B6000BFF36F8FFEE7120202F4E062A260019AD7
:103B70000A70016A41F470010162016A41F070410A
:103B8000016200F0FFFB0020606000F059FC3A4940
:103B9000086840F04040086000F042FC002016BD7C
:103BA000502080F31188BFF34F8FBFF36F8F2D4AE2
:103BB0005168491C516001290AD130490968090638
:103BC00006D080F31188BFF34F8FBFF36F8FFEE7EE
:103BD000704724494868002807D1502080F3118895
:103BE000BFF34F8FBFF36F8FFEE7401E486002D1D7
:103BF000002080F31188704780B5502080F3118831
:103C0000BFF34F8FBFF36F8FFFF7FCFC002803D08B
:103C10004FF0805119480160002080F3118801BDE8
:103C2000EFF305820F48102A0CD315498A5C0178FE
:103C30008A4207D2502080F31188BFF34F8FBFF321
:103C40006F8FFEE780680F49096801F4E0618842E0
:103C500007D2502080F31188BFF34F8FBFF36F8FCF
:103C6000FEE770470000002000ED00E071C20F4148
:103C700070C20F4100E400E034EF00E004ED00E02A
:103C8000F0E300E00CED00E07047704770477047CC
:103C90007047704770477047704770477047000023
:103CA000F8B504460025FFF73DFC7B4EB0680028C0
:103CB00001D100F0A1F8F069044258D1002C14D0D1
:103CC000083414F0070F10D004F1080104F00700C5
:103CD0000C46241A14F0070F07D0502080F31188E7
:103CE000BFF34F8FBFF36F8FFEE7002C3FD0F0681C
:103CF000A0423CD33146376801E039460746786830
:103D0000A04202D238680028F7D1B06887422ED08E
:103D1000086800F10805386808607A68121B112AE3
:103D200011D3391911F0070007D0502080F3118802
:103D3000BFF34F8FBFF36F8FFEE7381D02517C60DA
:103D4000084600F081F87968F068401AF060304663
:103D5000C06832461269904200D910463061F0695D
:103D600001437960002038607069401C7061FFF782
:103D7000DFFB15F0070007D0502080F31188BFF358
:103D80004F8FBFF36F8FFEE72846F2BD002800D1AA
:103D9000704738B5A0F1080463683F4DEA6912EA3C
:103DA000030007D1502080F31188BFF34F8FBFF37A
:103DB0006F8FFEE72168002907D0502080F311881B
:103DC000BFF34F8FBFF36F8FFEE7002813D000299A
:103DD00011D193436360FFF7A5FBE9686068411860
:103DE000E960204600F030F8A869401CA861BDE8F1
:103DF0003140FFF79DBB31BD10B44FF6FF7326482D
:103E000000F120010A4600F1200414F0070F06D04B
:103E1000CA1DD208D2009B1A1C460B461B19026011
:103E2000002141609B18083BDB08DB008360596080
:103E30001960991A5160136051680161C1604FF0B7
:103E40000041C16110BC704730B413490A4600E01C
:103E50001A4613688342FBD35368D418844203D1B3
:103E60004068C3185360104643681468C518A542DB
:103E70000BD189688C4206D06168CB184360116809
:103E80000968016002E0016000E00460824200D045
:103E9000106030BC704700002000002062F30F2249
:103EA00062F31F4200B500BF1300964694461039D6
:103EB00028BFA0E80C50FAD85FEA417C28BF0CC0AC
:103EC00048BF40F8042BC90728BF20F8022B48BF81
:103ED00000F8012B00BD00F1080141604FF0FF31F7
:103EE000816000F10801C16001610021016070473B
:103EF00000210161704742684A6093688B60936853
:103F00005960916008610168491C0160704730B4D4
:103F10000D6815F1010F01D1046907E000F10804F3
:103F200000E01C4663681A689542FAD262684A60EB
:103F300091608C60616008610168491C016030BC5F
:103F40007047016983684268936043688268536080
:103F50004A68824201D182684A6000220261086890
:103F6000401E086008687047034B036003F15C0063
:103F70000860802010607047FC08012038B586B0CA
:103F8000002400F0C7F9DFF8E053A868002819D032
:103F900020460590049003AA04A905A800F05EFA43
:103FA0000598029004980190022000902346039AFD
:103FB0000FF2C0310FF2F500FFF732F9E860002888
:103FC00000D00124002C07D1502080F31188BFF3CA
:103FD0004F8FBFF36F8FFEE7204607B030BDF8B5B7
:103FE00084B004461E460020002C07D1502080F3E8
:103FF0001188BFF34F8FBFF36F8FFEE7DFF8687351
:10400000BD68002D1CD0009101920294062911DA9E
:10401000FFF7C8FC022806D10A9A00236946B8684F
:1040200000F0D4FA0CE000231A466946B86800F0A4
:10403000CDFA05E0034632466946284600F084FB87
:1040400005B0F0BD7CB504460D46DFF81C030068E2
:10405000C068C668301DFFF774FF96F8281048073F
:104060001AD523462A46B1690919304600F07EF870
:10407000002815D000200090034622460146304615
:10408000FFF7ADFF00280BD1502080F31188BFF35C
:104090004F8FBFF36F8FFEE701F0FE0186F8281007
:1040A0003046316ABDE87C400847000080B568466C
:1040B00000F03CF8009900F003F800F077F8F6E71C
:1040C0007CB506460C46FFF72DFA684600F03BF833
:1040D00005460098002826D1002C08D1B54206D309
:1040E000FFF726FA29463046FFF7ACFF73BDDFF82D
:1040F0007802002C04D0416809684C1EA441E40FEA
:104100002246761B3146806800F0EAFCFFF710FA81
:1041100000280AD14FF0805194480160BFF34F8FBF
:10412000BFF36F8F73BDFFF703FA73BD8E49096844
:104130000A68521E9241D20F026002D1C86800681C
:1041400070470020704770B50646FFF750FA0446E6
:10415000874D2868844204D200F0A8F8012030601E
:1041600001E0002030602C60204670BD10B50024B6
:10417000416000618A420BD3D21A81698A4201D31D
:10418000012410E0011D78484068FFF7C0FE0AE0F6
:104190009A4203D2994201D3012404E0011D7248DE
:1041A0000068FFF7B4FE204610BD000010B586B0D1
:1041B00005E00B460A4641182046FFF7D7FF0022CC
:1041C00002A96948806800F02AFB00286CD0029898
:1041D000002803D505990498039A9047029800286F
:1041E000EDD4049C6069002802D0201DFFF7A9FED1
:1041F00001A8FFF7A8FF014602980928DFD8DFE8E9
:1042000000F00606064C324406064C32D7E794F816
:10421000280040F0010084F82800039803460A466D
:10422000A169081801462046FFF7A0FF0028C6D064
:104230002046216A884794F828004007BFD500200F
:1042400000900346039AA069821819462046FFF79A
:10425000C6FE0028B3D1502080F31188BFF34F8FE2
:10426000BFF36F8FFEE794F8280040F0010084F858
:1042700028000398A06100289BD1502080F311886A
:10428000BFF34F8FBFF36F8FFEE794F828008007CE
:1042900003D42046FFF77AFD91E794F8280000F058
:1042A000FE0084F828008AE706B010BD7CB52E4CCD
:1042B00005E070603661311D2068FFF728FE216837
:1042C0000868002822D0C8680568C668301DFFF756
:1042D00038FE3046316A884796F828004007EED508
:1042E000B06940198542E4D30020009003462A4675
:1042F00001463046FFF773FE0028E0D1502080F3DE
:104300001188BFF34F8FBFF36F8FFEE760682060A7
:10431000616073BD1CB5FFF743FC134CA068002817
:104320001DD104F11000FFF7D6FD04F12400FFF7C2
:10433000D2FD04F11000206004F124006060002030
:10434000009004F1380304F1880210210A2000F0E3
:10435000D8F8A060002802D008A100F0ACFBBDE8AE
:104360001340FFF736BC0000580B012004ED00E0BD
:10437000680F0120546D722053766300546D7251A2
:1043800000000000074800210160816006490A68BA
:104390004FF47A71B2FBF1F1491E416007210160CF
:1043A000704700BF10E000E018000020EFF3098024
:1043B000BFF36F8F264B1A681EF0100F08BF20ED59
:1043C000108A20E9F04F106009B44FF0500080F3DC
:1043D0001188BFF34F8FBFF36F8FFFF779F94FF05D
:1043E000000080F3118809BC19680868B0E8F04F34
:1043F0001EF0100F08BFB0EC108A80F30988BFF3DD
:104400006F8F7047124B19680868B0E8F04F80F35F
:104410000988BFF36F8F4FF0000080F31188704759
:104420000C480068006880F308884FF0000080F3B3
:10443000148862B661B6BFF34F8FBFF36F8F00DF92
:10444000DFF81400016841F470010160704700005A
:10445000A80C012008ED00E088ED00E0044B0360AB
:1044600003F15C0008604FF480701060704700BF7B
:10447000A004012038B504460D46002C07D1502079
:1044800080F31188BFF34F8FBFF36F8FFEE7FFF705
:1044900087FB2268E16B206C41435018A06000202C
:1044A000A063206860602268E16B491E206C414374
:1044B0005018E06004F144014FF0FF30087048707C
:1044C000002D12D12069002817D004F11000FFF749
:1044D00062F9002811D04FF08051DFF89804016094
:1044E000BFF34F8FBFF36F8F07E004F11000FFF7AA
:1044F000F2FC04F12400FFF7EEFCFFF76AFB012059
:1045000032BD38B51C46002807D1502080F31188F1
:10451000BFF34F8FBFF36F8FFEE7002C07D1502002
:1045200080F31188BFF34F8FBFF36F8FFEE7002A30
:1045300005D00B465B1E9B41DB43DB0F00E00123F4
:10454000002B07D1502080F31188BFF34F8FBFF3AA
:104550006F8FFEE7002A04D10B465B1E9B41DB0FE9
:1045600000E00123002B07D1502080F31188BFF316
:104570004F8FBFF36F8FFEE750230093009B502BAC
:1045800007D0502080F31188BFF34F8FBFF36F8F98
:10459000FEE7009B002C06D0049B012584F84650C2
:1045A000009400F002F8204632BD38B51D46049C48
:1045B000002901D1246000E02260E0632164012130
:1045C0002046FFF757FF84F84C5031BDF7B505463C
:1045D0000E461F460024002D07D1502080F311887D
:1045E000BFF34F8FBFF36F8FFEE7002E04D1286C0F
:1045F000401E8041C00F00E00120002807D150205C
:1046000080F31188BFF34F8FBFF36F8FFEE7022F48
:1046100002D1E86B012801D1012000E020460028EA
:1046200007D1502080F31188BFF34F8FBFF36F8FF6
:10463000FEE7FFF7B7F9002804D10298401E804139
:10464000C00F00E00120002838D1502080F31188ED
:10465000BFF34F8FBFF36F8FFEE70298002853D050
:10466000002C03D16846FFF7CDF80124FFF7B1FA1B
:10467000FEF758FFFFF794FA05F1440090F9001097
:1046800011F1010F01D10021017090F9011011F118
:10469000010F01D100214170FFF79BFA02A9684682
:1046A000FFF7B7F80028284648D100F0F5F90028B0
:1046B0002ED1284600F0ACF9FEF73AFFFFF770FA6A
:1046C000A96BE86B814201D3022FC6D13A4631462D
:1046D000284600F051F9696A002906D005F1240046
:1046E000FFF759F8002802D10AE0002808D04FF05F
:1046F0008051DFF880020160BFF34F8FBFF36F8FEF
:10470000FFF767FA0120FEBDFFF763FA0020FEBD48
:10471000029905F11000FFF70BF8284600F078F930
:10472000FEF706FF0028C9D14FF08051DFF84402A0
:104730000160BFF34F8FBFF36F8FBFE700F068F9E1
:10474000FEF7F6FE0020FEBD2DE9F84304460E46B6
:1047500015469846002C07D1502080F31188BFF3EE
:104760004F8FBFF36F8FFEE7002E04D1206C401EE9
:104770008041C00F00E00120002807D1502080F3C5
:104780001188BFF34F8FBFF36F8FFEE7B8F1020FB1
:1047900002D1E06B012801D1012000E000204FF0A0
:1047A0005009002806D189F31188BFF34F8FBFF35A
:1047B0006F8FFEE7FFF734FAEFF3118789F3118863
:1047C000BFF34F8FBFF36F8FA16BE06B814202D3BA
:1047D000B8F1020F1ED194F94590A06B42463146C4
:1047E000204600F0C9F819F1010F0DD1606A0028C8
:1047F0000ED004F12400FEF7CEFF002808D0002DD3
:1048000006D00120286003E009F1010984F84590F1
:10481000012000E0002087F31188BDE8F283F7B59E
:1048200006460F460024002E07D1502080F3118841
:10483000BFF34F8FBFF36F8FFEE7002F04D1306CB3
:10484000401E8041C00F00E00120002807D1502009
:1048500080F31188BFF34F8FBFF36F8FFEE7FFF731
:10486000A1F8002804D10298401E8041C00F00E04A
:10487000012000280CD1502080F31188BFF34F8F06
:10488000BFF36F8FFEE7304600F0C2F8FEF750FE30
:10489000FFF786F9B56B002D41D10298002859D059
:1048A000002C03D16846FEF7ADFF0124FFF791F914
:1048B000FEF738FEFFF774F906F1440090F9001096
:1048C00011F1010F01D10021017090F9011011F1D6
:1048D000010F01D100214170FFF77BF902A9684661
:1048E000FEF797FF0028304638D100F0C9F80028BD
:1048F000C9D0029906F12400FEF71AFF304600F0F5
:1049000087F8FEF715FE0028C2D14FF08051DFF87E
:1049100064000160BFF34F8FBFF36F8FB8E7394674
:10492000304600F063F86D1EB563306900280DD085
:1049300006F11000FEF72FFF002807D04FF080513E
:104940000C480160BFF34F8FBFF36F8FFFF741F942
:104950000120FEBDFFF73DF90020FEBD00F058F834
:10496000FEF7E6FD304600F08BF8002890D00020DE
:10497000FEBD000004ED00E0F8B506461546002730
:10498000B46B326C002A09D1306800282AD1B06893
:10499000FFF716F807460020B06023E0002D0CD189
:1049A000706800F0C3F87168306C01447160B068E1
:1049B000814217D33068706014E0F06800F0B6F8F8
:1049C000F168306C40420144F1603068814204D2A9
:1049D000B168306C40420844F060022D02D1002CD6
:1049E00000D0641E641CB4633846F2BD0B46016CF3
:1049F00000290CD0C2680A44C26081688A4201D38F
:104A00000168C160026CC168184600F08FB8704739
:104A1000F8B50546FFF7C4F805F1440494F90160C0
:104A200008E005F12400FEF7B6FE002801D0FEF7ED
:104A30002CFF761E304640B2012802DB686A00284F
:104A4000EFD14FF0FF366670FFF7C3F8FFF7A8F815
:104A500094F9007008E005F11000FEF79CFE0028B4
:104A600001D0FEF712FF7F1E384640B2012802DB5C
:104A700028690028EFD12670BDE8F140FFF7A9B8FA
:104A800010B50446FFF78CF8A06B441EA441E40F58
:104A9000FFF79FF8204610BD10B50446FFF780F8D9
:104AA000A06BE16B884201D1012400E00024FFF7F4
:104AB00090F8204610BD10B40024084B00E0641CA0
:104AC000082C08D253F83420002AF8D143F83410C7
:104AD00003EBC401486010BC704700001C0F0120AC
:104AE000F8B504460D461646FFF75AF804F13807A4
:104AF00097F90C0010F1010F01D10020387397F9DC
:104B00000D0010F1010F01D100207873FFF761F85B
:104B10003868002805D13246294604F12400FEF702
:104B20001EFE2046BDE8F24072E7000062B38B072C
:104B300008D0521E11F8013B00F8013B00F0248020
:104B40008B07F6D1830740F0208000BF103A07D3CF
:104B500030B4B1E83810103AA0E83810F9D230BCBF
:104B6000530724BFB1E80810A0E8081044BF51F86B
:104B7000043B40F8043BD20724BF31F8022B20F855
:104B8000022B44BF0B7803707047121F17D35B00D2
:104B900009D151F8043B20F8023B1B0C121F20F8EE
:104BA000023BF6D20BE051F8043B00F8013B1B0A34
:104BB00020F8023B1B0C121F00F8013BF3D238BF58
:104BC000121D521E24BF11F8013B00F8013BF8D81A
:104BD00070470000FEE7FEE7FEE7FEE7FEE77047EE
:104BE00070B5754E002204213046FDF723F8734C52
:104BF0002088B0F5FA5F17DA714D2846FEF770F895
:104C000020880B280BDB6F48002101602188816020
:104C100001216D4801702846FEF720F804E00122CA
:104C200004213046FDF706F80820BDE87040FDF786
:104C30000FB870B5604E00224FF480413046FCF74B
:104C4000F9FF5E4C2088B0F5FA5F18DA5F4D284610
:104C5000FEF746F820880B280BDB5D480021016039
:104C60002188816001215B4801702846FDF7F6FF2D
:104C700005E001224FF480413046FCF7DBFF1020B5
:104C8000BDE87040FCF7E4BF5348FCF702BB38B501
:104C900000224FF400614FF09040FCF7CBFF474CEF
:104CA0002088B0F5FA5F19DA4C4D2846FEF718F85F
:104CB00020880B280BDB4A48002101602188816095
:104CC0000121484801702846FDF7C8FF06E001228F
:104CD0004FF400614FF09040FCF7ACFF2020BDE89E
:104CE0003240FCF7B5BF4048FEF724B870B5344CED
:104CF0002046FEF71FF8304D334E307801280BD197
:104D0000012204212846FCF795FF4FF4FA71374839
:104D100001600020307070BD2046FDF7E1FF0022E9
:104D200004212846BDE87040FCF784BF70B5274CCD
:104D30002046FDF7FFFF204D264E307801280CD18C
:104D400001224FF480412846FCF774FF4FF4FA71BA
:104D5000274801600020307070BD2046FDF7C0FF7D
:104D600000224FF480412846BDE87040FCF762BF46
:104D700038B51A4D2846FDF7DDFF1A4C207801287A
:104D80000DD101224FF400614FF09040FCF752FF2B
:104D90004FF4FA71174801600020207031BD284699
:104DA000FDF79EFF00224FF400614FF09040BDE8F8
:104DB0003840FCF73FBF0000000400481C00002002
:104DC000380E0120240400406C0F0120840E0120C5
:104DD000240800406D0F01208C0D0120D00E012011
:104DE000243401406E0F0120EC0D01202C04004002
:104DF0002C0800402C34014030B4002412E050F85C
:104E0000043BDA0744BF4B445B1E091F042943F8E7
:104E1000044BFAD21A468D0744BF1C80921CCB0764
:104E200048BF147050F8041B0029E8D130BC70470B
:104E300010B5034A7A440832024C7C44A41D03E0B6
:104E4000640000008400000004E01168101D11449B
:104E500088470246A242F8D110BD00007C4F0008EE
:104E60000000000000000000000000000000000042
:104E700000200000180000000000000000000000FA
:104E80004EF68851CEF20001086840F470000860C8
:104E9000BFF34F8FBFF36F8F4FF00170E1EE100A39
:104EA0007047000055FFFFFF500F01002000002059
:104EB000000000006BC5FFFF200000007400000030
:104EC00000000020000000000249086840F4700063
:104ED0000860704788ED00E000000000000000005E
:104EE000010203040607080900F00DF8002801D0AC
:104EF000FFF79EFFAFF300800020AFF30080FCF7C8
:104F0000D7FA00F002F80120704700F001B8000065
:104F10000746384600F002F8FBE7000080B5AFF323
:104F20000080024A11001820ABBEFBE726000200F9
:104F300000000000AAAAAAAA0000000000000000C9
:104F400010000000010000000024F40028230000ED
:104F50000548014603B4684680F30988AFF3008032
:104F6000FFF78EFFFFF7C0FFA5EDF5FE0148804774
:104F700001480047C94E0008514F00086D61696E35
:104F80005461736B00000000000000000102030484
:104F9000FFF7FEBFFFF7FEBFFFF7FEBFFFF7FEBF45
:104FA000FFF7FEBFFFF7FEBFFFF7FEBFFFF7FEBF35
:104FB000FFF7FEBFFFF7FEBFFFF7FEBFFFF7FEBF25
:104FC000FFF7FEBFFFF7FEBFFFF7FEBFFFF7FEBF15
:104FD000FFF7FEBFFFF7FEBFFFF7FEBFFFF7FEBF05
:104FE000FFF7FEBFFFF7FEBFFFF7FEBFFFF7FEBFF5
:104FF000FFF7FEBFFFF7FEBFFFF7FEBFFFF7FEBFE5
:10500000FFF7FEBFFFF7FEBFFFF7FEBFFFF7FEBFD4
:10501000FFF7FEBFFFF7FEBFFFF7FEBFFFF7FEBFC4
:10502000FFF7FEBFFFF7FEBFFFF7FEBFFFF7FEBFB4
:10503000FFF7FEBFFFF7FEBFFFF7FEBFFFF7FEBFA4
:10504000FFF7FEBFFFF7FEBFFFF7FEBFFFF7FEBF94
:10505000FFF7FEBFFFF7FEBFFFF7FEBFFFF7FEBF84
:10506000FFF7FEBFFFF7FEBFFFF7FEBFFFF7FEBF74
:10507000FFF7FEBFFFF7FEBFFFF7FEBFFFF7FEBF64
:10508000FFF7FEBFFFF7FEBFFFF7FEBFFFF7FEBF54
:10509000FFF7FEBFFFF7FEBFFFF7FEBFFFF7FEBF44
:1050A000FFF7FEBFFFF7FEBFFFF7FEBFFFF7FEBF34
:1050B000FFF7FEBFFFF7FEBFFFF7FEBFFFF7FEBF24
:1050C000FFF7FEBFFFF7FEBFFFF7FEBFFFF7FEBF14
:1050D000FFF7FEBFFFF7FEBFFFF7FEBFFFF7FEBF04
:0450E000FFF7FEBF19
:0400000508004F514F
:00000001FF
